{
	"contracts/CryptoRabbits.sol": {
		"CryptoRabbits": {
			"abi": [
				{
					"inputs": [
						{
							"internalType": "string",
							"name": "_name",
							"type": "string"
						}
					],
					"name": "_createRabbit",
					"outputs": [],
					"stateMutability": "nonpayable",
					"type": "function"
				},
				{
					"inputs": [
						{
							"internalType": "uint256",
							"name": "",
							"type": "uint256"
						}
					],
					"name": "rabbitToOwner",
					"outputs": [
						{
							"internalType": "address",
							"name": "",
							"type": "address"
						}
					],
					"stateMutability": "view",
					"type": "function"
				},
				{
					"inputs": [
						{
							"internalType": "uint256",
							"name": "",
							"type": "uint256"
						}
					],
					"name": "rabbits",
					"outputs": [
						{
							"internalType": "string",
							"name": "name",
							"type": "string"
						},
						{
							"internalType": "uint256",
							"name": "dna",
							"type": "uint256"
						},
						{
							"internalType": "uint256",
							"name": "birthday",
							"type": "uint256"
						},
						{
							"internalType": "uint8",
							"name": "generation",
							"type": "uint8"
						},
						{
							"internalType": "uint8",
							"name": "breedingCooldown",
							"type": "uint8"
						}
					],
					"stateMutability": "view",
					"type": "function"
				}
			],
			"devdoc": {
				"kind": "dev",
				"methods": {},
				"version": 1
			},
			"evm": {
				"assembly": "    /* \"contracts/CryptoRabbits.sol\":61:1478  contract CryptoRabbits {... */\n  mstore(0x40, 0x80)\n  callvalue\n  dup1\n  iszero\n  tag_1\n  jumpi\n  0x00\n  dup1\n  revert\ntag_1:\n  pop\n  dataSize(sub_0)\n  dup1\n  dataOffset(sub_0)\n  0x00\n  codecopy\n  0x00\n  return\nstop\n\nsub_0: assembly {\n        /* \"contracts/CryptoRabbits.sol\":61:1478  contract CryptoRabbits {... */\n      mstore(0x40, 0x80)\n      callvalue\n      dup1\n      iszero\n      tag_1\n      jumpi\n      0x00\n      dup1\n      revert\n    tag_1:\n      pop\n      jumpi(tag_2, lt(calldatasize, 0x04))\n      shr(0xe0, calldataload(0x00))\n      dup1\n      0x3c78d2da\n      eq\n      tag_3\n      jumpi\n      dup1\n      0x59dc2eec\n      eq\n      tag_4\n      jumpi\n      dup1\n      0xe804047b\n      eq\n      tag_5\n      jumpi\n    tag_2:\n      0x00\n      dup1\n      revert\n        /* \"contracts/CryptoRabbits.sol\":1102:1475  function _createRabbit(string memory _name) public {... */\n    tag_3:\n      tag_6\n      0x04\n      dup1\n      calldatasize\n      sub\n      dup2\n      add\n      swap1\n      tag_7\n      swap2\n      swap1\n      tag_8\n      jump\t// in\n    tag_7:\n      tag_9\n      jump\t// in\n    tag_6:\n      stop\n        /* \"contracts/CryptoRabbits.sol\":967:990  Rabbit[] public rabbits */\n    tag_4:\n      tag_10\n      0x04\n      dup1\n      calldatasize\n      sub\n      dup2\n      add\n      swap1\n      tag_11\n      swap2\n      swap1\n      tag_12\n      jump\t// in\n    tag_11:\n      tag_13\n      jump\t// in\n    tag_10:\n      mload(0x40)\n      tag_14\n      swap6\n      swap5\n      swap4\n      swap3\n      swap2\n      swap1\n      tag_15\n      jump\t// in\n    tag_14:\n      mload(0x40)\n      dup1\n      swap2\n      sub\n      swap1\n      return\n        /* \"contracts/CryptoRabbits.sol\":997:1043  mapping (uint => address) public rabbitToOwner */\n    tag_5:\n      tag_16\n      0x04\n      dup1\n      calldatasize\n      sub\n      dup2\n      add\n      swap1\n      tag_17\n      swap2\n      swap1\n      tag_12\n      jump\t// in\n    tag_17:\n      tag_18\n      jump\t// in\n    tag_16:\n      mload(0x40)\n      tag_19\n      swap2\n      swap1\n      tag_20\n      jump\t// in\n    tag_19:\n      mload(0x40)\n      dup1\n      swap2\n      sub\n      swap1\n      return\n        /* \"contracts/CryptoRabbits.sol\":1102:1475  function _createRabbit(string memory _name) public {... */\n    tag_9:\n        /* \"contracts/CryptoRabbits.sol\":1205:1206  0 */\n      0x00\n        /* \"contracts/CryptoRabbits.sol\":1172:1189  ownerRabbitsCount */\n      0x02\n        /* \"contracts/CryptoRabbits.sol\":1172:1201  ownerRabbitsCount[msg.sender] */\n      0x00\n        /* \"contracts/CryptoRabbits.sol\":1190:1200  msg.sender */\n      caller\n        /* \"contracts/CryptoRabbits.sol\":1172:1201  ownerRabbitsCount[msg.sender] */\n      0xffffffffffffffffffffffffffffffffffffffff\n      and\n      0xffffffffffffffffffffffffffffffffffffffff\n      and\n      dup2\n      mstore\n      0x20\n      add\n      swap1\n      dup2\n      mstore\n      0x20\n      add\n      0x00\n      keccak256\n      sload\n        /* \"contracts/CryptoRabbits.sol\":1172:1206  ownerRabbitsCount[msg.sender] == 0 */\n      eq\n        /* \"contracts/CryptoRabbits.sol\":1164:1207  require(ownerRabbitsCount[msg.sender] == 0) */\n      tag_22\n      jumpi\n      0x00\n      dup1\n      revert\n    tag_22:\n        /* \"contracts/CryptoRabbits.sol\":1220:1228  uint dna */\n      0x00\n        /* \"contracts/CryptoRabbits.sol\":1263:1273  msg.sender */\n      caller\n        /* \"contracts/CryptoRabbits.sol\":1246:1274  abi.encodePacked(msg.sender) */\n      add(0x20, mload(0x40))\n      tag_23\n      swap2\n      swap1\n      tag_24\n      jump\t// in\n    tag_23:\n      mload(0x40)\n      0x20\n      dup2\n      dup4\n      sub\n      sub\n      dup2\n      mstore\n      swap1\n      0x40\n      mstore\n        /* \"contracts/CryptoRabbits.sol\":1236:1275  keccak256(abi.encodePacked(msg.sender)) */\n      dup1\n      mload\n      swap1\n      0x20\n      add\n      keccak256\n        /* \"contracts/CryptoRabbits.sol\":1231:1276  uint(keccak256(abi.encodePacked(msg.sender))) */\n      0x00\n      shr\n        /* \"contracts/CryptoRabbits.sol\":1220:1276  uint dna = uint(keccak256(abi.encodePacked(msg.sender))) */\n      swap1\n      pop\n        /* \"contracts/CryptoRabbits.sol\":1287:1294  rabbits */\n      0x00\n        /* \"contracts/CryptoRabbits.sol\":1300:1341  Rabbit(_name, dna, block.timestamp, 1, 0) */\n      mload(0x40)\n      dup1\n      0xa0\n      add\n      0x40\n      mstore\n      dup1\n        /* \"contracts/CryptoRabbits.sol\":1307:1312  _name */\n      dup5\n        /* \"contracts/CryptoRabbits.sol\":1300:1341  Rabbit(_name, dna, block.timestamp, 1, 0) */\n      dup2\n      mstore\n      0x20\n      add\n        /* \"contracts/CryptoRabbits.sol\":1314:1317  dna */\n      dup4\n        /* \"contracts/CryptoRabbits.sol\":1300:1341  Rabbit(_name, dna, block.timestamp, 1, 0) */\n      dup2\n      mstore\n      0x20\n      add\n        /* \"contracts/CryptoRabbits.sol\":1319:1334  block.timestamp */\n      timestamp\n        /* \"contracts/CryptoRabbits.sol\":1300:1341  Rabbit(_name, dna, block.timestamp, 1, 0) */\n      dup2\n      mstore\n      0x20\n      add\n        /* \"contracts/CryptoRabbits.sol\":1336:1337  1 */\n      0x01\n        /* \"contracts/CryptoRabbits.sol\":1300:1341  Rabbit(_name, dna, block.timestamp, 1, 0) */\n      0xff\n      and\n      dup2\n      mstore\n      0x20\n      add\n        /* \"contracts/CryptoRabbits.sol\":1339:1340  0 */\n      0x00\n        /* \"contracts/CryptoRabbits.sol\":1300:1341  Rabbit(_name, dna, block.timestamp, 1, 0) */\n      0xff\n      and\n      dup2\n      mstore\n      pop\n        /* \"contracts/CryptoRabbits.sol\":1287:1342  rabbits.push(Rabbit(_name, dna, block.timestamp, 1, 0)) */\n      swap1\n      dup1\n      0x01\n      dup2\n      sload\n      add\n      dup1\n      dup3\n      sstore\n      dup1\n      swap2\n      pop\n      pop\n      0x01\n      swap1\n      sub\n      swap1\n      0x00\n      mstore\n      keccak256(0x00, 0x20)\n      swap1\n      0x04\n      mul\n      add\n      0x00\n      swap1\n      swap2\n      swap1\n      swap2\n      swap1\n      swap2\n      pop\n      0x00\n      dup3\n      add\n      mload\n      dup2\n      0x00\n      add\n      swap1\n      dup2\n      tag_26\n      swap2\n      swap1\n      tag_27\n      jump\t// in\n    tag_26:\n      pop\n      0x20\n      dup3\n      add\n      mload\n      dup2\n      0x01\n      add\n      sstore\n      0x40\n      dup3\n      add\n      mload\n      dup2\n      0x02\n      add\n      sstore\n      0x60\n      dup3\n      add\n      mload\n      dup2\n      0x03\n      add\n      exp(0x0100, 0x00)\n      dup2\n      sload\n      dup2\n      0xff\n      mul\n      not\n      and\n      swap1\n      dup4\n      0xff\n      and\n      mul\n      or\n      swap1\n      sstore\n      pop\n      0x80\n      dup3\n      add\n      mload\n      dup2\n      0x03\n      add\n      exp(0x0100, 0x01)\n      dup2\n      sload\n      dup2\n      0xff\n      mul\n      not\n      and\n      swap1\n      dup4\n      0xff\n      and\n      mul\n      or\n      swap1\n      sstore\n      pop\n      pop\n      pop\n        /* \"contracts/CryptoRabbits.sol\":1353:1360  uint id */\n      0x00\n        /* \"contracts/CryptoRabbits.sol\":1380:1381  1 */\n      0x01\n        /* \"contracts/CryptoRabbits.sol\":1363:1370  rabbits */\n      0x00\n        /* \"contracts/CryptoRabbits.sol\":1363:1377  rabbits.length */\n      dup1\n      sload\n      swap1\n      pop\n        /* \"contracts/CryptoRabbits.sol\":1363:1381  rabbits.length - 1 */\n      tag_28\n      swap2\n      swap1\n      tag_29\n      jump\t// in\n    tag_28:\n        /* \"contracts/CryptoRabbits.sol\":1353:1381  uint id = rabbits.length - 1 */\n      swap1\n      pop\n        /* \"contracts/CryptoRabbits.sol\":1412:1422  msg.sender */\n      caller\n        /* \"contracts/CryptoRabbits.sol\":1392:1405  rabbitToOwner */\n      0x01\n        /* \"contracts/CryptoRabbits.sol\":1392:1409  rabbitToOwner[id] */\n      0x00\n        /* \"contracts/CryptoRabbits.sol\":1406:1408  id */\n      dup4\n        /* \"contracts/CryptoRabbits.sol\":1392:1409  rabbitToOwner[id] */\n      dup2\n      mstore\n      0x20\n      add\n      swap1\n      dup2\n      mstore\n      0x20\n      add\n      0x00\n      keccak256\n      0x00\n        /* \"contracts/CryptoRabbits.sol\":1392:1422  rabbitToOwner[id] = msg.sender */\n      0x0100\n      exp\n      dup2\n      sload\n      dup2\n      0xffffffffffffffffffffffffffffffffffffffff\n      mul\n      not\n      and\n      swap1\n      dup4\n      0xffffffffffffffffffffffffffffffffffffffff\n      and\n      mul\n      or\n      swap1\n      sstore\n      pop\n        /* \"contracts/CryptoRabbits.sol\":1466:1467  1 */\n      0x01\n        /* \"contracts/CryptoRabbits.sol\":1433:1450  ownerRabbitsCount */\n      0x02\n        /* \"contracts/CryptoRabbits.sol\":1433:1462  ownerRabbitsCount[msg.sender] */\n      0x00\n        /* \"contracts/CryptoRabbits.sol\":1451:1461  msg.sender */\n      caller\n        /* \"contracts/CryptoRabbits.sol\":1433:1462  ownerRabbitsCount[msg.sender] */\n      0xffffffffffffffffffffffffffffffffffffffff\n      and\n      0xffffffffffffffffffffffffffffffffffffffff\n      and\n      dup2\n      mstore\n      0x20\n      add\n      swap1\n      dup2\n      mstore\n      0x20\n      add\n      0x00\n      keccak256\n      0x00\n        /* \"contracts/CryptoRabbits.sol\":1433:1467  ownerRabbitsCount[msg.sender] += 1 */\n      dup3\n      dup3\n      sload\n      tag_30\n      swap2\n      swap1\n      tag_31\n      jump\t// in\n    tag_30:\n      swap3\n      pop\n      pop\n      dup2\n      swap1\n      sstore\n      pop\n        /* \"contracts/CryptoRabbits.sol\":1153:1475  {... */\n      pop\n      pop\n        /* \"contracts/CryptoRabbits.sol\":1102:1475  function _createRabbit(string memory _name) public {... */\n      pop\n      jump\t// out\n        /* \"contracts/CryptoRabbits.sol\":967:990  Rabbit[] public rabbits */\n    tag_13:\n      0x00\n      dup2\n      dup2\n      sload\n      dup2\n      lt\n      tag_32\n      jumpi\n      0x00\n      dup1\n      revert\n    tag_32:\n      swap1\n      0x00\n      mstore\n      keccak256(0x00, 0x20)\n      swap1\n      0x04\n      mul\n      add\n      0x00\n      swap2\n      pop\n      swap1\n      pop\n      dup1\n      0x00\n      add\n      dup1\n      sload\n      tag_34\n      swap1\n      tag_35\n      jump\t// in\n    tag_34:\n      dup1\n      0x1f\n      add\n      0x20\n      dup1\n      swap2\n      div\n      mul\n      0x20\n      add\n      mload(0x40)\n      swap1\n      dup2\n      add\n      0x40\n      mstore\n      dup1\n      swap3\n      swap2\n      swap1\n      dup2\n      dup2\n      mstore\n      0x20\n      add\n      dup3\n      dup1\n      sload\n      tag_36\n      swap1\n      tag_35\n      jump\t// in\n    tag_36:\n      dup1\n      iszero\n      tag_37\n      jumpi\n      dup1\n      0x1f\n      lt\n      tag_38\n      jumpi\n      0x0100\n      dup1\n      dup4\n      sload\n      div\n      mul\n      dup4\n      mstore\n      swap2\n      0x20\n      add\n      swap2\n      jump(tag_37)\n    tag_38:\n      dup3\n      add\n      swap2\n      swap1\n      0x00\n      mstore\n      keccak256(0x00, 0x20)\n      swap1\n    tag_39:\n      dup2\n      sload\n      dup2\n      mstore\n      swap1\n      0x01\n      add\n      swap1\n      0x20\n      add\n      dup1\n      dup4\n      gt\n      tag_39\n      jumpi\n      dup3\n      swap1\n      sub\n      0x1f\n      and\n      dup3\n      add\n      swap2\n    tag_37:\n      pop\n      pop\n      pop\n      pop\n      pop\n      swap1\n      dup1\n      0x01\n      add\n      sload\n      swap1\n      dup1\n      0x02\n      add\n      sload\n      swap1\n      dup1\n      0x03\n      add\n      0x00\n      swap1\n      sload\n      swap1\n      0x0100\n      exp\n      swap1\n      div\n      0xff\n      and\n      swap1\n      dup1\n      0x03\n      add\n      0x01\n      swap1\n      sload\n      swap1\n      0x0100\n      exp\n      swap1\n      div\n      0xff\n      and\n      swap1\n      pop\n      dup6\n      jump\t// out\n        /* \"contracts/CryptoRabbits.sol\":997:1043  mapping (uint => address) public rabbitToOwner */\n    tag_18:\n      mstore(0x20, 0x01)\n      dup1\n      0x00\n      mstore\n      keccak256(0x00, 0x40)\n      0x00\n      swap2\n      pop\n      sload\n      swap1\n      0x0100\n      exp\n      swap1\n      div\n      0xffffffffffffffffffffffffffffffffffffffff\n      and\n      dup2\n      jump\t// out\n        /* \"#utility.yul\":7:82   */\n    tag_40:\n        /* \"#utility.yul\":40:46   */\n      0x00\n        /* \"#utility.yul\":73:75   */\n      0x40\n        /* \"#utility.yul\":67:76   */\n      mload\n        /* \"#utility.yul\":57:76   */\n      swap1\n      pop\n        /* \"#utility.yul\":7:82   */\n      swap1\n      jump\t// out\n        /* \"#utility.yul\":88:205   */\n    tag_41:\n        /* \"#utility.yul\":197:198   */\n      0x00\n        /* \"#utility.yul\":194:195   */\n      dup1\n        /* \"#utility.yul\":187:199   */\n      revert\n        /* \"#utility.yul\":211:328   */\n    tag_42:\n        /* \"#utility.yul\":320:321   */\n      0x00\n        /* \"#utility.yul\":317:318   */\n      dup1\n        /* \"#utility.yul\":310:322   */\n      revert\n        /* \"#utility.yul\":334:451   */\n    tag_43:\n        /* \"#utility.yul\":443:444   */\n      0x00\n        /* \"#utility.yul\":440:441   */\n      dup1\n        /* \"#utility.yul\":433:445   */\n      revert\n        /* \"#utility.yul\":457:574   */\n    tag_44:\n        /* \"#utility.yul\":566:567   */\n      0x00\n        /* \"#utility.yul\":563:564   */\n      dup1\n        /* \"#utility.yul\":556:568   */\n      revert\n        /* \"#utility.yul\":580:682   */\n    tag_45:\n        /* \"#utility.yul\":621:627   */\n      0x00\n        /* \"#utility.yul\":672:674   */\n      0x1f\n        /* \"#utility.yul\":668:675   */\n      not\n        /* \"#utility.yul\":663:665   */\n      0x1f\n        /* \"#utility.yul\":656:661   */\n      dup4\n        /* \"#utility.yul\":652:666   */\n      add\n        /* \"#utility.yul\":648:676   */\n      and\n        /* \"#utility.yul\":638:676   */\n      swap1\n      pop\n        /* \"#utility.yul\":580:682   */\n      swap2\n      swap1\n      pop\n      jump\t// out\n        /* \"#utility.yul\":688:868   */\n    tag_46:\n        /* \"#utility.yul\":736:813   */\n      0x4e487b7100000000000000000000000000000000000000000000000000000000\n        /* \"#utility.yul\":733:734   */\n      0x00\n        /* \"#utility.yul\":726:814   */\n      mstore\n        /* \"#utility.yul\":833:837   */\n      0x41\n        /* \"#utility.yul\":830:831   */\n      0x04\n        /* \"#utility.yul\":823:838   */\n      mstore\n        /* \"#utility.yul\":857:861   */\n      0x24\n        /* \"#utility.yul\":854:855   */\n      0x00\n        /* \"#utility.yul\":847:862   */\n      revert\n        /* \"#utility.yul\":874:1155   */\n    tag_47:\n        /* \"#utility.yul\":957:984   */\n      tag_96\n        /* \"#utility.yul\":979:983   */\n      dup3\n        /* \"#utility.yul\":957:984   */\n      tag_45\n      jump\t// in\n    tag_96:\n        /* \"#utility.yul\":949:955   */\n      dup2\n        /* \"#utility.yul\":945:985   */\n      add\n        /* \"#utility.yul\":1087:1093   */\n      dup2\n        /* \"#utility.yul\":1075:1085   */\n      dup2\n        /* \"#utility.yul\":1072:1094   */\n      lt\n        /* \"#utility.yul\":1051:1069   */\n      0xffffffffffffffff\n        /* \"#utility.yul\":1039:1049   */\n      dup3\n        /* \"#utility.yul\":1036:1070   */\n      gt\n        /* \"#utility.yul\":1033:1095   */\n      or\n        /* \"#utility.yul\":1030:1118   */\n      iszero\n      tag_97\n      jumpi\n        /* \"#utility.yul\":1098:1116   */\n      tag_98\n      tag_46\n      jump\t// in\n    tag_98:\n        /* \"#utility.yul\":1030:1118   */\n    tag_97:\n        /* \"#utility.yul\":1138:1148   */\n      dup1\n        /* \"#utility.yul\":1134:1136   */\n      0x40\n        /* \"#utility.yul\":1127:1149   */\n      mstore\n        /* \"#utility.yul\":917:1155   */\n      pop\n        /* \"#utility.yul\":874:1155   */\n      pop\n      pop\n      jump\t// out\n        /* \"#utility.yul\":1161:1290   */\n    tag_48:\n        /* \"#utility.yul\":1195:1201   */\n      0x00\n        /* \"#utility.yul\":1222:1242   */\n      tag_100\n      tag_40\n      jump\t// in\n    tag_100:\n        /* \"#utility.yul\":1212:1242   */\n      swap1\n      pop\n        /* \"#utility.yul\":1251:1284   */\n      tag_101\n        /* \"#utility.yul\":1279:1283   */\n      dup3\n        /* \"#utility.yul\":1271:1277   */\n      dup3\n        /* \"#utility.yul\":1251:1284   */\n      tag_47\n      jump\t// in\n    tag_101:\n        /* \"#utility.yul\":1161:1290   */\n      swap2\n      swap1\n      pop\n      jump\t// out\n        /* \"#utility.yul\":1296:1604   */\n    tag_49:\n        /* \"#utility.yul\":1358:1362   */\n      0x00\n        /* \"#utility.yul\":1448:1466   */\n      0xffffffffffffffff\n        /* \"#utility.yul\":1440:1446   */\n      dup3\n        /* \"#utility.yul\":1437:1467   */\n      gt\n        /* \"#utility.yul\":1434:1490   */\n      iszero\n      tag_103\n      jumpi\n        /* \"#utility.yul\":1470:1488   */\n      tag_104\n      tag_46\n      jump\t// in\n    tag_104:\n        /* \"#utility.yul\":1434:1490   */\n    tag_103:\n        /* \"#utility.yul\":1508:1537   */\n      tag_105\n        /* \"#utility.yul\":1530:1536   */\n      dup3\n        /* \"#utility.yul\":1508:1537   */\n      tag_45\n      jump\t// in\n    tag_105:\n        /* \"#utility.yul\":1500:1537   */\n      swap1\n      pop\n        /* \"#utility.yul\":1592:1596   */\n      0x20\n        /* \"#utility.yul\":1586:1590   */\n      dup2\n        /* \"#utility.yul\":1582:1597   */\n      add\n        /* \"#utility.yul\":1574:1597   */\n      swap1\n      pop\n        /* \"#utility.yul\":1296:1604   */\n      swap2\n      swap1\n      pop\n      jump\t// out\n        /* \"#utility.yul\":1610:1758   */\n    tag_50:\n        /* \"#utility.yul\":1708:1714   */\n      dup3\n        /* \"#utility.yul\":1703:1706   */\n      dup2\n        /* \"#utility.yul\":1698:1701   */\n      dup4\n        /* \"#utility.yul\":1685:1715   */\n      calldatacopy\n        /* \"#utility.yul\":1749:1750   */\n      0x00\n        /* \"#utility.yul\":1740:1746   */\n      dup4\n        /* \"#utility.yul\":1735:1738   */\n      dup4\n        /* \"#utility.yul\":1731:1747   */\n      add\n        /* \"#utility.yul\":1724:1751   */\n      mstore\n        /* \"#utility.yul\":1610:1758   */\n      pop\n      pop\n      pop\n      jump\t// out\n        /* \"#utility.yul\":1764:2189   */\n    tag_51:\n        /* \"#utility.yul\":1842:1847   */\n      0x00\n        /* \"#utility.yul\":1867:1933   */\n      tag_108\n        /* \"#utility.yul\":1883:1932   */\n      tag_109\n        /* \"#utility.yul\":1925:1931   */\n      dup5\n        /* \"#utility.yul\":1883:1932   */\n      tag_49\n      jump\t// in\n    tag_109:\n        /* \"#utility.yul\":1867:1933   */\n      tag_48\n      jump\t// in\n    tag_108:\n        /* \"#utility.yul\":1858:1933   */\n      swap1\n      pop\n        /* \"#utility.yul\":1956:1962   */\n      dup3\n        /* \"#utility.yul\":1949:1954   */\n      dup2\n        /* \"#utility.yul\":1942:1963   */\n      mstore\n        /* \"#utility.yul\":1994:1998   */\n      0x20\n        /* \"#utility.yul\":1987:1992   */\n      dup2\n        /* \"#utility.yul\":1983:1999   */\n      add\n        /* \"#utility.yul\":2032:2035   */\n      dup5\n        /* \"#utility.yul\":2023:2029   */\n      dup5\n        /* \"#utility.yul\":2018:2021   */\n      dup5\n        /* \"#utility.yul\":2014:2030   */\n      add\n        /* \"#utility.yul\":2011:2036   */\n      gt\n        /* \"#utility.yul\":2008:2120   */\n      iszero\n      tag_110\n      jumpi\n        /* \"#utility.yul\":2039:2118   */\n      tag_111\n      tag_44\n      jump\t// in\n    tag_111:\n        /* \"#utility.yul\":2008:2120   */\n    tag_110:\n        /* \"#utility.yul\":2129:2183   */\n      tag_112\n        /* \"#utility.yul\":2176:2182   */\n      dup5\n        /* \"#utility.yul\":2171:2174   */\n      dup3\n        /* \"#utility.yul\":2166:2169   */\n      dup6\n        /* \"#utility.yul\":2129:2183   */\n      tag_50\n      jump\t// in\n    tag_112:\n        /* \"#utility.yul\":1848:2189   */\n      pop\n        /* \"#utility.yul\":1764:2189   */\n      swap4\n      swap3\n      pop\n      pop\n      pop\n      jump\t// out\n        /* \"#utility.yul\":2209:2549   */\n    tag_52:\n        /* \"#utility.yul\":2265:2270   */\n      0x00\n        /* \"#utility.yul\":2314:2317   */\n      dup3\n        /* \"#utility.yul\":2307:2311   */\n      0x1f\n        /* \"#utility.yul\":2299:2305   */\n      dup4\n        /* \"#utility.yul\":2295:2312   */\n      add\n        /* \"#utility.yul\":2291:2318   */\n      slt\n        /* \"#utility.yul\":2281:2403   */\n      tag_114\n      jumpi\n        /* \"#utility.yul\":2322:2401   */\n      tag_115\n      tag_43\n      jump\t// in\n    tag_115:\n        /* \"#utility.yul\":2281:2403   */\n    tag_114:\n        /* \"#utility.yul\":2439:2445   */\n      dup2\n        /* \"#utility.yul\":2426:2446   */\n      calldataload\n        /* \"#utility.yul\":2464:2543   */\n      tag_116\n        /* \"#utility.yul\":2539:2542   */\n      dup5\n        /* \"#utility.yul\":2531:2537   */\n      dup3\n        /* \"#utility.yul\":2524:2528   */\n      0x20\n        /* \"#utility.yul\":2516:2522   */\n      dup7\n        /* \"#utility.yul\":2512:2529   */\n      add\n        /* \"#utility.yul\":2464:2543   */\n      tag_51\n      jump\t// in\n    tag_116:\n        /* \"#utility.yul\":2455:2543   */\n      swap2\n      pop\n        /* \"#utility.yul\":2271:2549   */\n      pop\n        /* \"#utility.yul\":2209:2549   */\n      swap3\n      swap2\n      pop\n      pop\n      jump\t// out\n        /* \"#utility.yul\":2555:3064   */\n    tag_8:\n        /* \"#utility.yul\":2624:2630   */\n      0x00\n        /* \"#utility.yul\":2673:2675   */\n      0x20\n        /* \"#utility.yul\":2661:2670   */\n      dup3\n        /* \"#utility.yul\":2652:2659   */\n      dup5\n        /* \"#utility.yul\":2648:2671   */\n      sub\n        /* \"#utility.yul\":2644:2676   */\n      slt\n        /* \"#utility.yul\":2641:2760   */\n      iszero\n      tag_118\n      jumpi\n        /* \"#utility.yul\":2679:2758   */\n      tag_119\n      tag_41\n      jump\t// in\n    tag_119:\n        /* \"#utility.yul\":2641:2760   */\n    tag_118:\n        /* \"#utility.yul\":2827:2828   */\n      0x00\n        /* \"#utility.yul\":2816:2825   */\n      dup3\n        /* \"#utility.yul\":2812:2829   */\n      add\n        /* \"#utility.yul\":2799:2830   */\n      calldataload\n        /* \"#utility.yul\":2857:2875   */\n      0xffffffffffffffff\n        /* \"#utility.yul\":2849:2855   */\n      dup2\n        /* \"#utility.yul\":2846:2876   */\n      gt\n        /* \"#utility.yul\":2843:2960   */\n      iszero\n      tag_120\n      jumpi\n        /* \"#utility.yul\":2879:2958   */\n      tag_121\n      tag_42\n      jump\t// in\n    tag_121:\n        /* \"#utility.yul\":2843:2960   */\n    tag_120:\n        /* \"#utility.yul\":2984:3047   */\n      tag_122\n        /* \"#utility.yul\":3039:3046   */\n      dup5\n        /* \"#utility.yul\":3030:3036   */\n      dup3\n        /* \"#utility.yul\":3019:3028   */\n      dup6\n        /* \"#utility.yul\":3015:3037   */\n      add\n        /* \"#utility.yul\":2984:3047   */\n      tag_52\n      jump\t// in\n    tag_122:\n        /* \"#utility.yul\":2974:3047   */\n      swap2\n      pop\n        /* \"#utility.yul\":2770:3057   */\n      pop\n        /* \"#utility.yul\":2555:3064   */\n      swap3\n      swap2\n      pop\n      pop\n      jump\t// out\n        /* \"#utility.yul\":3070:3147   */\n    tag_53:\n        /* \"#utility.yul\":3107:3114   */\n      0x00\n        /* \"#utility.yul\":3136:3141   */\n      dup2\n        /* \"#utility.yul\":3125:3141   */\n      swap1\n      pop\n        /* \"#utility.yul\":3070:3147   */\n      swap2\n      swap1\n      pop\n      jump\t// out\n        /* \"#utility.yul\":3153:3275   */\n    tag_54:\n        /* \"#utility.yul\":3226:3250   */\n      tag_125\n        /* \"#utility.yul\":3244:3249   */\n      dup2\n        /* \"#utility.yul\":3226:3250   */\n      tag_53\n      jump\t// in\n    tag_125:\n        /* \"#utility.yul\":3219:3224   */\n      dup2\n        /* \"#utility.yul\":3216:3251   */\n      eq\n        /* \"#utility.yul\":3206:3269   */\n      tag_126\n      jumpi\n        /* \"#utility.yul\":3265:3266   */\n      0x00\n        /* \"#utility.yul\":3262:3263   */\n      dup1\n        /* \"#utility.yul\":3255:3267   */\n      revert\n        /* \"#utility.yul\":3206:3269   */\n    tag_126:\n        /* \"#utility.yul\":3153:3275   */\n      pop\n      jump\t// out\n        /* \"#utility.yul\":3281:3420   */\n    tag_55:\n        /* \"#utility.yul\":3327:3332   */\n      0x00\n        /* \"#utility.yul\":3365:3371   */\n      dup2\n        /* \"#utility.yul\":3352:3372   */\n      calldataload\n        /* \"#utility.yul\":3343:3372   */\n      swap1\n      pop\n        /* \"#utility.yul\":3381:3414   */\n      tag_128\n        /* \"#utility.yul\":3408:3413   */\n      dup2\n        /* \"#utility.yul\":3381:3414   */\n      tag_54\n      jump\t// in\n    tag_128:\n        /* \"#utility.yul\":3281:3420   */\n      swap3\n      swap2\n      pop\n      pop\n      jump\t// out\n        /* \"#utility.yul\":3426:3755   */\n    tag_12:\n        /* \"#utility.yul\":3485:3491   */\n      0x00\n        /* \"#utility.yul\":3534:3536   */\n      0x20\n        /* \"#utility.yul\":3522:3531   */\n      dup3\n        /* \"#utility.yul\":3513:3520   */\n      dup5\n        /* \"#utility.yul\":3509:3532   */\n      sub\n        /* \"#utility.yul\":3505:3537   */\n      slt\n        /* \"#utility.yul\":3502:3621   */\n      iszero\n      tag_130\n      jumpi\n        /* \"#utility.yul\":3540:3619   */\n      tag_131\n      tag_41\n      jump\t// in\n    tag_131:\n        /* \"#utility.yul\":3502:3621   */\n    tag_130:\n        /* \"#utility.yul\":3660:3661   */\n      0x00\n        /* \"#utility.yul\":3685:3738   */\n      tag_132\n        /* \"#utility.yul\":3730:3737   */\n      dup5\n        /* \"#utility.yul\":3721:3727   */\n      dup3\n        /* \"#utility.yul\":3710:3719   */\n      dup6\n        /* \"#utility.yul\":3706:3728   */\n      add\n        /* \"#utility.yul\":3685:3738   */\n      tag_55\n      jump\t// in\n    tag_132:\n        /* \"#utility.yul\":3675:3738   */\n      swap2\n      pop\n        /* \"#utility.yul\":3631:3748   */\n      pop\n        /* \"#utility.yul\":3426:3755   */\n      swap3\n      swap2\n      pop\n      pop\n      jump\t// out\n        /* \"#utility.yul\":3761:3860   */\n    tag_56:\n        /* \"#utility.yul\":3813:3819   */\n      0x00\n        /* \"#utility.yul\":3847:3852   */\n      dup2\n        /* \"#utility.yul\":3841:3853   */\n      mload\n        /* \"#utility.yul\":3831:3853   */\n      swap1\n      pop\n        /* \"#utility.yul\":3761:3860   */\n      swap2\n      swap1\n      pop\n      jump\t// out\n        /* \"#utility.yul\":3866:4035   */\n    tag_57:\n        /* \"#utility.yul\":3950:3961   */\n      0x00\n        /* \"#utility.yul\":3984:3990   */\n      dup3\n        /* \"#utility.yul\":3979:3982   */\n      dup3\n        /* \"#utility.yul\":3972:3991   */\n      mstore\n        /* \"#utility.yul\":4024:4028   */\n      0x20\n        /* \"#utility.yul\":4019:4022   */\n      dup3\n        /* \"#utility.yul\":4015:4029   */\n      add\n        /* \"#utility.yul\":4000:4029   */\n      swap1\n      pop\n        /* \"#utility.yul\":3866:4035   */\n      swap3\n      swap2\n      pop\n      pop\n      jump\t// out\n        /* \"#utility.yul\":4041:4180   */\n    tag_58:\n        /* \"#utility.yul\":4130:4136   */\n      dup3\n        /* \"#utility.yul\":4125:4128   */\n      dup2\n        /* \"#utility.yul\":4120:4123   */\n      dup4\n        /* \"#utility.yul\":4114:4137   */\n      mcopy\n        /* \"#utility.yul\":4171:4172   */\n      0x00\n        /* \"#utility.yul\":4162:4168   */\n      dup4\n        /* \"#utility.yul\":4157:4160   */\n      dup4\n        /* \"#utility.yul\":4153:4169   */\n      add\n        /* \"#utility.yul\":4146:4173   */\n      mstore\n        /* \"#utility.yul\":4041:4180   */\n      pop\n      pop\n      pop\n      jump\t// out\n        /* \"#utility.yul\":4186:4563   */\n    tag_59:\n        /* \"#utility.yul\":4274:4277   */\n      0x00\n        /* \"#utility.yul\":4302:4341   */\n      tag_137\n        /* \"#utility.yul\":4335:4340   */\n      dup3\n        /* \"#utility.yul\":4302:4341   */\n      tag_56\n      jump\t// in\n    tag_137:\n        /* \"#utility.yul\":4357:4428   */\n      tag_138\n        /* \"#utility.yul\":4421:4427   */\n      dup2\n        /* \"#utility.yul\":4416:4419   */\n      dup6\n        /* \"#utility.yul\":4357:4428   */\n      tag_57\n      jump\t// in\n    tag_138:\n        /* \"#utility.yul\":4350:4428   */\n      swap4\n      pop\n        /* \"#utility.yul\":4437:4502   */\n      tag_139\n        /* \"#utility.yul\":4495:4501   */\n      dup2\n        /* \"#utility.yul\":4490:4493   */\n      dup6\n        /* \"#utility.yul\":4483:4487   */\n      0x20\n        /* \"#utility.yul\":4476:4481   */\n      dup7\n        /* \"#utility.yul\":4472:4488   */\n      add\n        /* \"#utility.yul\":4437:4502   */\n      tag_58\n      jump\t// in\n    tag_139:\n        /* \"#utility.yul\":4527:4556   */\n      tag_140\n        /* \"#utility.yul\":4549:4555   */\n      dup2\n        /* \"#utility.yul\":4527:4556   */\n      tag_45\n      jump\t// in\n    tag_140:\n        /* \"#utility.yul\":4522:4525   */\n      dup5\n        /* \"#utility.yul\":4518:4557   */\n      add\n        /* \"#utility.yul\":4511:4557   */\n      swap2\n      pop\n        /* \"#utility.yul\":4278:4563   */\n      pop\n        /* \"#utility.yul\":4186:4563   */\n      swap3\n      swap2\n      pop\n      pop\n      jump\t// out\n        /* \"#utility.yul\":4569:4687   */\n    tag_60:\n        /* \"#utility.yul\":4656:4680   */\n      tag_142\n        /* \"#utility.yul\":4674:4679   */\n      dup2\n        /* \"#utility.yul\":4656:4680   */\n      tag_53\n      jump\t// in\n    tag_142:\n        /* \"#utility.yul\":4651:4654   */\n      dup3\n        /* \"#utility.yul\":4644:4681   */\n      mstore\n        /* \"#utility.yul\":4569:4687   */\n      pop\n      pop\n      jump\t// out\n        /* \"#utility.yul\":4693:4779   */\n    tag_61:\n        /* \"#utility.yul\":4728:4735   */\n      0x00\n        /* \"#utility.yul\":4768:4772   */\n      0xff\n        /* \"#utility.yul\":4761:4766   */\n      dup3\n        /* \"#utility.yul\":4757:4773   */\n      and\n        /* \"#utility.yul\":4746:4773   */\n      swap1\n      pop\n        /* \"#utility.yul\":4693:4779   */\n      swap2\n      swap1\n      pop\n      jump\t// out\n        /* \"#utility.yul\":4785:4897   */\n    tag_62:\n        /* \"#utility.yul\":4868:4890   */\n      tag_145\n        /* \"#utility.yul\":4884:4889   */\n      dup2\n        /* \"#utility.yul\":4868:4890   */\n      tag_61\n      jump\t// in\n    tag_145:\n        /* \"#utility.yul\":4863:4866   */\n      dup3\n        /* \"#utility.yul\":4856:4891   */\n      mstore\n        /* \"#utility.yul\":4785:4897   */\n      pop\n      pop\n      jump\t// out\n        /* \"#utility.yul\":4903:5642   */\n    tag_15:\n        /* \"#utility.yul\":5120:5124   */\n      0x00\n        /* \"#utility.yul\":5158:5161   */\n      0xa0\n        /* \"#utility.yul\":5147:5156   */\n      dup3\n        /* \"#utility.yul\":5143:5162   */\n      add\n        /* \"#utility.yul\":5135:5162   */\n      swap1\n      pop\n        /* \"#utility.yul\":5208:5217   */\n      dup2\n        /* \"#utility.yul\":5202:5206   */\n      dup2\n        /* \"#utility.yul\":5198:5218   */\n      sub\n        /* \"#utility.yul\":5194:5195   */\n      0x00\n        /* \"#utility.yul\":5183:5192   */\n      dup4\n        /* \"#utility.yul\":5179:5196   */\n      add\n        /* \"#utility.yul\":5172:5219   */\n      mstore\n        /* \"#utility.yul\":5236:5314   */\n      tag_147\n        /* \"#utility.yul\":5309:5313   */\n      dup2\n        /* \"#utility.yul\":5300:5306   */\n      dup9\n        /* \"#utility.yul\":5236:5314   */\n      tag_59\n      jump\t// in\n    tag_147:\n        /* \"#utility.yul\":5228:5314   */\n      swap1\n      pop\n        /* \"#utility.yul\":5324:5396   */\n      tag_148\n        /* \"#utility.yul\":5392:5394   */\n      0x20\n        /* \"#utility.yul\":5381:5390   */\n      dup4\n        /* \"#utility.yul\":5377:5395   */\n      add\n        /* \"#utility.yul\":5368:5374   */\n      dup8\n        /* \"#utility.yul\":5324:5396   */\n      tag_60\n      jump\t// in\n    tag_148:\n        /* \"#utility.yul\":5406:5478   */\n      tag_149\n        /* \"#utility.yul\":5474:5476   */\n      0x40\n        /* \"#utility.yul\":5463:5472   */\n      dup4\n        /* \"#utility.yul\":5459:5477   */\n      add\n        /* \"#utility.yul\":5450:5456   */\n      dup7\n        /* \"#utility.yul\":5406:5478   */\n      tag_60\n      jump\t// in\n    tag_149:\n        /* \"#utility.yul\":5488:5556   */\n      tag_150\n        /* \"#utility.yul\":5552:5554   */\n      0x60\n        /* \"#utility.yul\":5541:5550   */\n      dup4\n        /* \"#utility.yul\":5537:5555   */\n      add\n        /* \"#utility.yul\":5528:5534   */\n      dup6\n        /* \"#utility.yul\":5488:5556   */\n      tag_62\n      jump\t// in\n    tag_150:\n        /* \"#utility.yul\":5566:5635   */\n      tag_151\n        /* \"#utility.yul\":5630:5633   */\n      0x80\n        /* \"#utility.yul\":5619:5628   */\n      dup4\n        /* \"#utility.yul\":5615:5634   */\n      add\n        /* \"#utility.yul\":5606:5612   */\n      dup5\n        /* \"#utility.yul\":5566:5635   */\n      tag_62\n      jump\t// in\n    tag_151:\n        /* \"#utility.yul\":4903:5642   */\n      swap7\n      swap6\n      pop\n      pop\n      pop\n      pop\n      pop\n      pop\n      jump\t// out\n        /* \"#utility.yul\":5648:5774   */\n    tag_63:\n        /* \"#utility.yul\":5685:5692   */\n      0x00\n        /* \"#utility.yul\":5725:5767   */\n      0xffffffffffffffffffffffffffffffffffffffff\n        /* \"#utility.yul\":5718:5723   */\n      dup3\n        /* \"#utility.yul\":5714:5768   */\n      and\n        /* \"#utility.yul\":5703:5768   */\n      swap1\n      pop\n        /* \"#utility.yul\":5648:5774   */\n      swap2\n      swap1\n      pop\n      jump\t// out\n        /* \"#utility.yul\":5780:5876   */\n    tag_64:\n        /* \"#utility.yul\":5817:5824   */\n      0x00\n        /* \"#utility.yul\":5846:5870   */\n      tag_154\n        /* \"#utility.yul\":5864:5869   */\n      dup3\n        /* \"#utility.yul\":5846:5870   */\n      tag_63\n      jump\t// in\n    tag_154:\n        /* \"#utility.yul\":5835:5870   */\n      swap1\n      pop\n        /* \"#utility.yul\":5780:5876   */\n      swap2\n      swap1\n      pop\n      jump\t// out\n        /* \"#utility.yul\":5882:6000   */\n    tag_65:\n        /* \"#utility.yul\":5969:5993   */\n      tag_156\n        /* \"#utility.yul\":5987:5992   */\n      dup2\n        /* \"#utility.yul\":5969:5993   */\n      tag_64\n      jump\t// in\n    tag_156:\n        /* \"#utility.yul\":5964:5967   */\n      dup3\n        /* \"#utility.yul\":5957:5994   */\n      mstore\n        /* \"#utility.yul\":5882:6000   */\n      pop\n      pop\n      jump\t// out\n        /* \"#utility.yul\":6006:6228   */\n    tag_20:\n        /* \"#utility.yul\":6099:6103   */\n      0x00\n        /* \"#utility.yul\":6137:6139   */\n      0x20\n        /* \"#utility.yul\":6126:6135   */\n      dup3\n        /* \"#utility.yul\":6122:6140   */\n      add\n        /* \"#utility.yul\":6114:6140   */\n      swap1\n      pop\n        /* \"#utility.yul\":6150:6221   */\n      tag_158\n        /* \"#utility.yul\":6218:6219   */\n      0x00\n        /* \"#utility.yul\":6207:6216   */\n      dup4\n        /* \"#utility.yul\":6203:6220   */\n      add\n        /* \"#utility.yul\":6194:6200   */\n      dup5\n        /* \"#utility.yul\":6150:6221   */\n      tag_65\n      jump\t// in\n    tag_158:\n        /* \"#utility.yul\":6006:6228   */\n      swap3\n      swap2\n      pop\n      pop\n      jump\t// out\n        /* \"#utility.yul\":6234:6328   */\n    tag_66:\n        /* \"#utility.yul\":6267:6275   */\n      0x00\n        /* \"#utility.yul\":6315:6320   */\n      dup2\n        /* \"#utility.yul\":6311:6313   */\n      0x60\n        /* \"#utility.yul\":6307:6321   */\n      shl\n        /* \"#utility.yul\":6286:6321   */\n      swap1\n      pop\n        /* \"#utility.yul\":6234:6328   */\n      swap2\n      swap1\n      pop\n      jump\t// out\n        /* \"#utility.yul\":6334:6428   */\n    tag_67:\n        /* \"#utility.yul\":6373:6380   */\n      0x00\n        /* \"#utility.yul\":6402:6422   */\n      tag_161\n        /* \"#utility.yul\":6416:6421   */\n      dup3\n        /* \"#utility.yul\":6402:6422   */\n      tag_66\n      jump\t// in\n    tag_161:\n        /* \"#utility.yul\":6391:6422   */\n      swap1\n      pop\n        /* \"#utility.yul\":6334:6428   */\n      swap2\n      swap1\n      pop\n      jump\t// out\n        /* \"#utility.yul\":6434:6534   */\n    tag_68:\n        /* \"#utility.yul\":6473:6480   */\n      0x00\n        /* \"#utility.yul\":6502:6528   */\n      tag_163\n        /* \"#utility.yul\":6522:6527   */\n      dup3\n        /* \"#utility.yul\":6502:6528   */\n      tag_67\n      jump\t// in\n    tag_163:\n        /* \"#utility.yul\":6491:6528   */\n      swap1\n      pop\n        /* \"#utility.yul\":6434:6534   */\n      swap2\n      swap1\n      pop\n      jump\t// out\n        /* \"#utility.yul\":6540:6697   */\n    tag_69:\n        /* \"#utility.yul\":6645:6690   */\n      tag_165\n        /* \"#utility.yul\":6665:6689   */\n      tag_166\n        /* \"#utility.yul\":6683:6688   */\n      dup3\n        /* \"#utility.yul\":6665:6689   */\n      tag_64\n      jump\t// in\n    tag_166:\n        /* \"#utility.yul\":6645:6690   */\n      tag_68\n      jump\t// in\n    tag_165:\n        /* \"#utility.yul\":6640:6643   */\n      dup3\n        /* \"#utility.yul\":6633:6691   */\n      mstore\n        /* \"#utility.yul\":6540:6697   */\n      pop\n      pop\n      jump\t// out\n        /* \"#utility.yul\":6703:6959   */\n    tag_24:\n        /* \"#utility.yul\":6815:6818   */\n      0x00\n        /* \"#utility.yul\":6830:6905   */\n      tag_168\n        /* \"#utility.yul\":6901:6904   */\n      dup3\n        /* \"#utility.yul\":6892:6898   */\n      dup5\n        /* \"#utility.yul\":6830:6905   */\n      tag_69\n      jump\t// in\n    tag_168:\n        /* \"#utility.yul\":6930:6932   */\n      0x14\n        /* \"#utility.yul\":6925:6928   */\n      dup3\n        /* \"#utility.yul\":6921:6933   */\n      add\n        /* \"#utility.yul\":6914:6933   */\n      swap2\n      pop\n        /* \"#utility.yul\":6950:6953   */\n      dup2\n        /* \"#utility.yul\":6943:6953   */\n      swap1\n      pop\n        /* \"#utility.yul\":6703:6959   */\n      swap3\n      swap2\n      pop\n      pop\n      jump\t// out\n        /* \"#utility.yul\":6965:7145   */\n    tag_70:\n        /* \"#utility.yul\":7013:7090   */\n      0x4e487b7100000000000000000000000000000000000000000000000000000000\n        /* \"#utility.yul\":7010:7011   */\n      0x00\n        /* \"#utility.yul\":7003:7091   */\n      mstore\n        /* \"#utility.yul\":7110:7114   */\n      0x22\n        /* \"#utility.yul\":7107:7108   */\n      0x04\n        /* \"#utility.yul\":7100:7115   */\n      mstore\n        /* \"#utility.yul\":7134:7138   */\n      0x24\n        /* \"#utility.yul\":7131:7132   */\n      0x00\n        /* \"#utility.yul\":7124:7139   */\n      revert\n        /* \"#utility.yul\":7151:7471   */\n    tag_35:\n        /* \"#utility.yul\":7195:7201   */\n      0x00\n        /* \"#utility.yul\":7232:7233   */\n      0x02\n        /* \"#utility.yul\":7226:7230   */\n      dup3\n        /* \"#utility.yul\":7222:7234   */\n      div\n        /* \"#utility.yul\":7212:7234   */\n      swap1\n      pop\n        /* \"#utility.yul\":7279:7280   */\n      0x01\n        /* \"#utility.yul\":7273:7277   */\n      dup3\n        /* \"#utility.yul\":7269:7281   */\n      and\n        /* \"#utility.yul\":7300:7318   */\n      dup1\n        /* \"#utility.yul\":7290:7371   */\n      tag_171\n      jumpi\n        /* \"#utility.yul\":7356:7360   */\n      0x7f\n        /* \"#utility.yul\":7348:7354   */\n      dup3\n        /* \"#utility.yul\":7344:7361   */\n      and\n        /* \"#utility.yul\":7334:7361   */\n      swap2\n      pop\n        /* \"#utility.yul\":7290:7371   */\n    tag_171:\n        /* \"#utility.yul\":7418:7420   */\n      0x20\n        /* \"#utility.yul\":7410:7416   */\n      dup3\n        /* \"#utility.yul\":7407:7421   */\n      lt\n        /* \"#utility.yul\":7387:7405   */\n      dup2\n        /* \"#utility.yul\":7384:7422   */\n      sub\n        /* \"#utility.yul\":7381:7465   */\n      tag_172\n      jumpi\n        /* \"#utility.yul\":7437:7455   */\n      tag_173\n      tag_70\n      jump\t// in\n    tag_173:\n        /* \"#utility.yul\":7381:7465   */\n    tag_172:\n        /* \"#utility.yul\":7202:7471   */\n      pop\n        /* \"#utility.yul\":7151:7471   */\n      swap2\n      swap1\n      pop\n      jump\t// out\n        /* \"#utility.yul\":7477:7618   */\n    tag_71:\n        /* \"#utility.yul\":7526:7530   */\n      0x00\n        /* \"#utility.yul\":7549:7552   */\n      dup2\n        /* \"#utility.yul\":7541:7552   */\n      swap1\n      pop\n        /* \"#utility.yul\":7572:7575   */\n      dup2\n        /* \"#utility.yul\":7569:7570   */\n      0x00\n        /* \"#utility.yul\":7562:7576   */\n      mstore\n        /* \"#utility.yul\":7606:7610   */\n      0x20\n        /* \"#utility.yul\":7603:7604   */\n      0x00\n        /* \"#utility.yul\":7593:7611   */\n      keccak256\n        /* \"#utility.yul\":7585:7611   */\n      swap1\n      pop\n        /* \"#utility.yul\":7477:7618   */\n      swap2\n      swap1\n      pop\n      jump\t// out\n        /* \"#utility.yul\":7624:7717   */\n    tag_72:\n        /* \"#utility.yul\":7661:7667   */\n      0x00\n        /* \"#utility.yul\":7708:7710   */\n      0x20\n        /* \"#utility.yul\":7703:7705   */\n      0x1f\n        /* \"#utility.yul\":7696:7701   */\n      dup4\n        /* \"#utility.yul\":7692:7706   */\n      add\n        /* \"#utility.yul\":7688:7711   */\n      div\n        /* \"#utility.yul\":7678:7711   */\n      swap1\n      pop\n        /* \"#utility.yul\":7624:7717   */\n      swap2\n      swap1\n      pop\n      jump\t// out\n        /* \"#utility.yul\":7723:7830   */\n    tag_73:\n        /* \"#utility.yul\":7767:7775   */\n      0x00\n        /* \"#utility.yul\":7817:7822   */\n      dup3\n        /* \"#utility.yul\":7811:7815   */\n      dup3\n        /* \"#utility.yul\":7807:7823   */\n      shl\n        /* \"#utility.yul\":7786:7823   */\n      swap1\n      pop\n        /* \"#utility.yul\":7723:7830   */\n      swap3\n      swap2\n      pop\n      pop\n      jump\t// out\n        /* \"#utility.yul\":7836:8229   */\n    tag_74:\n        /* \"#utility.yul\":7905:7911   */\n      0x00\n        /* \"#utility.yul\":7955:7956   */\n      0x08\n        /* \"#utility.yul\":7943:7953   */\n      dup4\n        /* \"#utility.yul\":7939:7957   */\n      mul\n        /* \"#utility.yul\":7978:8075   */\n      tag_178\n        /* \"#utility.yul\":8008:8074   */\n      0xffffffffffffffffffffffffffffffffffffffffffffffffffffffffffffffff\n        /* \"#utility.yul\":7997:8006   */\n      dup3\n        /* \"#utility.yul\":7978:8075   */\n      tag_73\n      jump\t// in\n    tag_178:\n        /* \"#utility.yul\":8096:8135   */\n      tag_179\n        /* \"#utility.yul\":8126:8134   */\n      dup7\n        /* \"#utility.yul\":8115:8124   */\n      dup4\n        /* \"#utility.yul\":8096:8135   */\n      tag_73\n      jump\t// in\n    tag_179:\n        /* \"#utility.yul\":8084:8135   */\n      swap6\n      pop\n        /* \"#utility.yul\":8168:8172   */\n      dup1\n        /* \"#utility.yul\":8164:8173   */\n      not\n        /* \"#utility.yul\":8157:8162   */\n      dup5\n        /* \"#utility.yul\":8153:8174   */\n      and\n        /* \"#utility.yul\":8144:8174   */\n      swap4\n      pop\n        /* \"#utility.yul\":8217:8221   */\n      dup1\n        /* \"#utility.yul\":8207:8215   */\n      dup7\n        /* \"#utility.yul\":8203:8222   */\n      and\n        /* \"#utility.yul\":8196:8201   */\n      dup5\n        /* \"#utility.yul\":8193:8223   */\n      or\n        /* \"#utility.yul\":8183:8223   */\n      swap3\n      pop\n        /* \"#utility.yul\":7912:8229   */\n      pop\n      pop\n        /* \"#utility.yul\":7836:8229   */\n      swap4\n      swap3\n      pop\n      pop\n      pop\n      jump\t// out\n        /* \"#utility.yul\":8235:8295   */\n    tag_75:\n        /* \"#utility.yul\":8263:8266   */\n      0x00\n        /* \"#utility.yul\":8284:8289   */\n      dup2\n        /* \"#utility.yul\":8277:8289   */\n      swap1\n      pop\n        /* \"#utility.yul\":8235:8295   */\n      swap2\n      swap1\n      pop\n      jump\t// out\n        /* \"#utility.yul\":8301:8443   */\n    tag_76:\n        /* \"#utility.yul\":8351:8360   */\n      0x00\n        /* \"#utility.yul\":8384:8437   */\n      tag_182\n        /* \"#utility.yul\":8402:8436   */\n      tag_183\n        /* \"#utility.yul\":8411:8435   */\n      tag_184\n        /* \"#utility.yul\":8429:8434   */\n      dup5\n        /* \"#utility.yul\":8411:8435   */\n      tag_53\n      jump\t// in\n    tag_184:\n        /* \"#utility.yul\":8402:8436   */\n      tag_75\n      jump\t// in\n    tag_183:\n        /* \"#utility.yul\":8384:8437   */\n      tag_53\n      jump\t// in\n    tag_182:\n        /* \"#utility.yul\":8371:8437   */\n      swap1\n      pop\n        /* \"#utility.yul\":8301:8443   */\n      swap2\n      swap1\n      pop\n      jump\t// out\n        /* \"#utility.yul\":8449:8524   */\n    tag_77:\n        /* \"#utility.yul\":8492:8495   */\n      0x00\n        /* \"#utility.yul\":8513:8518   */\n      dup2\n        /* \"#utility.yul\":8506:8518   */\n      swap1\n      pop\n        /* \"#utility.yul\":8449:8524   */\n      swap2\n      swap1\n      pop\n      jump\t// out\n        /* \"#utility.yul\":8530:8799   */\n    tag_78:\n        /* \"#utility.yul\":8640:8679   */\n      tag_187\n        /* \"#utility.yul\":8671:8678   */\n      dup4\n        /* \"#utility.yul\":8640:8679   */\n      tag_76\n      jump\t// in\n    tag_187:\n        /* \"#utility.yul\":8701:8792   */\n      tag_188\n        /* \"#utility.yul\":8750:8791   */\n      tag_189\n        /* \"#utility.yul\":8774:8790   */\n      dup3\n        /* \"#utility.yul\":8750:8791   */\n      tag_77\n      jump\t// in\n    tag_189:\n        /* \"#utility.yul\":8742:8748   */\n      dup5\n        /* \"#utility.yul\":8735:8739   */\n      dup5\n        /* \"#utility.yul\":8729:8740   */\n      sload\n        /* \"#utility.yul\":8701:8792   */\n      tag_74\n      jump\t// in\n    tag_188:\n        /* \"#utility.yul\":8695:8699   */\n      dup3\n        /* \"#utility.yul\":8688:8793   */\n      sstore\n        /* \"#utility.yul\":8606:8799   */\n      pop\n        /* \"#utility.yul\":8530:8799   */\n      pop\n      pop\n      pop\n      jump\t// out\n        /* \"#utility.yul\":8805:8878   */\n    tag_79:\n        /* \"#utility.yul\":8850:8853   */\n      0x00\n        /* \"#utility.yul\":8805:8878   */\n      swap1\n      jump\t// out\n        /* \"#utility.yul\":8884:9073   */\n    tag_80:\n        /* \"#utility.yul\":8961:8993   */\n      tag_192\n      tag_79\n      jump\t// in\n    tag_192:\n        /* \"#utility.yul\":9002:9067   */\n      tag_193\n        /* \"#utility.yul\":9060:9066   */\n      dup2\n        /* \"#utility.yul\":9052:9058   */\n      dup5\n        /* \"#utility.yul\":9046:9050   */\n      dup5\n        /* \"#utility.yul\":9002:9067   */\n      tag_78\n      jump\t// in\n    tag_193:\n        /* \"#utility.yul\":8937:9073   */\n      pop\n        /* \"#utility.yul\":8884:9073   */\n      pop\n      pop\n      jump\t// out\n        /* \"#utility.yul\":9079:9265   */\n    tag_81:\n        /* \"#utility.yul\":9139:9259   */\n    tag_195:\n        /* \"#utility.yul\":9156:9159   */\n      dup2\n        /* \"#utility.yul\":9149:9154   */\n      dup2\n        /* \"#utility.yul\":9146:9160   */\n      lt\n        /* \"#utility.yul\":9139:9259   */\n      iszero\n      tag_197\n      jumpi\n        /* \"#utility.yul\":9210:9249   */\n      tag_198\n        /* \"#utility.yul\":9247:9248   */\n      0x00\n        /* \"#utility.yul\":9240:9245   */\n      dup3\n        /* \"#utility.yul\":9210:9249   */\n      tag_80\n      jump\t// in\n    tag_198:\n        /* \"#utility.yul\":9183:9184   */\n      0x01\n        /* \"#utility.yul\":9176:9181   */\n      dup2\n        /* \"#utility.yul\":9172:9185   */\n      add\n        /* \"#utility.yul\":9163:9185   */\n      swap1\n      pop\n        /* \"#utility.yul\":9139:9259   */\n      jump(tag_195)\n    tag_197:\n        /* \"#utility.yul\":9079:9265   */\n      pop\n      pop\n      jump\t// out\n        /* \"#utility.yul\":9271:9814   */\n    tag_82:\n        /* \"#utility.yul\":9372:9374   */\n      0x1f\n        /* \"#utility.yul\":9367:9370   */\n      dup3\n        /* \"#utility.yul\":9364:9375   */\n      gt\n        /* \"#utility.yul\":9361:9807   */\n      iszero\n      tag_200\n      jumpi\n        /* \"#utility.yul\":9406:9444   */\n      tag_201\n        /* \"#utility.yul\":9438:9443   */\n      dup2\n        /* \"#utility.yul\":9406:9444   */\n      tag_71\n      jump\t// in\n    tag_201:\n        /* \"#utility.yul\":9490:9519   */\n      tag_202\n        /* \"#utility.yul\":9508:9518   */\n      dup5\n        /* \"#utility.yul\":9490:9519   */\n      tag_72\n      jump\t// in\n    tag_202:\n        /* \"#utility.yul\":9480:9488   */\n      dup2\n        /* \"#utility.yul\":9476:9520   */\n      add\n        /* \"#utility.yul\":9673:9675   */\n      0x20\n        /* \"#utility.yul\":9661:9671   */\n      dup6\n        /* \"#utility.yul\":9658:9676   */\n      lt\n        /* \"#utility.yul\":9655:9704   */\n      iszero\n      tag_203\n      jumpi\n        /* \"#utility.yul\":9694:9702   */\n      dup2\n        /* \"#utility.yul\":9679:9702   */\n      swap1\n      pop\n        /* \"#utility.yul\":9655:9704   */\n    tag_203:\n        /* \"#utility.yul\":9717:9797   */\n      tag_204\n        /* \"#utility.yul\":9773:9795   */\n      tag_205\n        /* \"#utility.yul\":9791:9794   */\n      dup6\n        /* \"#utility.yul\":9773:9795   */\n      tag_72\n      jump\t// in\n    tag_205:\n        /* \"#utility.yul\":9763:9771   */\n      dup4\n        /* \"#utility.yul\":9759:9796   */\n      add\n        /* \"#utility.yul\":9746:9757   */\n      dup3\n        /* \"#utility.yul\":9717:9797   */\n      tag_81\n      jump\t// in\n    tag_204:\n        /* \"#utility.yul\":9376:9807   */\n      pop\n      pop\n        /* \"#utility.yul\":9361:9807   */\n    tag_200:\n        /* \"#utility.yul\":9271:9814   */\n      pop\n      pop\n      pop\n      jump\t// out\n        /* \"#utility.yul\":9820:9937   */\n    tag_83:\n        /* \"#utility.yul\":9874:9882   */\n      0x00\n        /* \"#utility.yul\":9924:9929   */\n      dup3\n        /* \"#utility.yul\":9918:9922   */\n      dup3\n        /* \"#utility.yul\":9914:9930   */\n      shr\n        /* \"#utility.yul\":9893:9930   */\n      swap1\n      pop\n        /* \"#utility.yul\":9820:9937   */\n      swap3\n      swap2\n      pop\n      pop\n      jump\t// out\n        /* \"#utility.yul\":9943:10112   */\n    tag_84:\n        /* \"#utility.yul\":9987:9993   */\n      0x00\n        /* \"#utility.yul\":10020:10071   */\n      tag_208\n        /* \"#utility.yul\":10068:10069   */\n      0x00\n        /* \"#utility.yul\":10064:10070   */\n      not\n        /* \"#utility.yul\":10056:10061   */\n      dup5\n        /* \"#utility.yul\":10053:10054   */\n      0x08\n        /* \"#utility.yul\":10049:10062   */\n      mul\n        /* \"#utility.yul\":10020:10071   */\n      tag_83\n      jump\t// in\n    tag_208:\n        /* \"#utility.yul\":10016:10072   */\n      not\n        /* \"#utility.yul\":10101:10105   */\n      dup1\n        /* \"#utility.yul\":10095:10099   */\n      dup4\n        /* \"#utility.yul\":10091:10106   */\n      and\n        /* \"#utility.yul\":10081:10106   */\n      swap2\n      pop\n        /* \"#utility.yul\":9994:10112   */\n      pop\n        /* \"#utility.yul\":9943:10112   */\n      swap3\n      swap2\n      pop\n      pop\n      jump\t// out\n        /* \"#utility.yul\":10117:10412   */\n    tag_85:\n        /* \"#utility.yul\":10193:10197   */\n      0x00\n        /* \"#utility.yul\":10339:10368   */\n      tag_210\n        /* \"#utility.yul\":10364:10367   */\n      dup4\n        /* \"#utility.yul\":10358:10362   */\n      dup4\n        /* \"#utility.yul\":10339:10368   */\n      tag_84\n      jump\t// in\n    tag_210:\n        /* \"#utility.yul\":10331:10368   */\n      swap2\n      pop\n        /* \"#utility.yul\":10401:10404   */\n      dup3\n        /* \"#utility.yul\":10398:10399   */\n      0x02\n        /* \"#utility.yul\":10394:10405   */\n      mul\n        /* \"#utility.yul\":10388:10392   */\n      dup3\n        /* \"#utility.yul\":10385:10406   */\n      or\n        /* \"#utility.yul\":10377:10406   */\n      swap1\n      pop\n        /* \"#utility.yul\":10117:10412   */\n      swap3\n      swap2\n      pop\n      pop\n      jump\t// out\n        /* \"#utility.yul\":10417:11812   */\n    tag_27:\n        /* \"#utility.yul\":10534:10571   */\n      tag_212\n        /* \"#utility.yul\":10567:10570   */\n      dup3\n        /* \"#utility.yul\":10534:10571   */\n      tag_56\n      jump\t// in\n    tag_212:\n        /* \"#utility.yul\":10636:10654   */\n      0xffffffffffffffff\n        /* \"#utility.yul\":10628:10634   */\n      dup2\n        /* \"#utility.yul\":10625:10655   */\n      gt\n        /* \"#utility.yul\":10622:10678   */\n      iszero\n      tag_213\n      jumpi\n        /* \"#utility.yul\":10658:10676   */\n      tag_214\n      tag_46\n      jump\t// in\n    tag_214:\n        /* \"#utility.yul\":10622:10678   */\n    tag_213:\n        /* \"#utility.yul\":10702:10740   */\n      tag_215\n        /* \"#utility.yul\":10734:10738   */\n      dup3\n        /* \"#utility.yul\":10728:10739   */\n      sload\n        /* \"#utility.yul\":10702:10740   */\n      tag_35\n      jump\t// in\n    tag_215:\n        /* \"#utility.yul\":10787:10854   */\n      tag_216\n        /* \"#utility.yul\":10847:10853   */\n      dup3\n        /* \"#utility.yul\":10839:10845   */\n      dup3\n        /* \"#utility.yul\":10833:10837   */\n      dup6\n        /* \"#utility.yul\":10787:10854   */\n      tag_82\n      jump\t// in\n    tag_216:\n        /* \"#utility.yul\":10881:10882   */\n      0x00\n        /* \"#utility.yul\":10905:10909   */\n      0x20\n        /* \"#utility.yul\":10892:10909   */\n      swap1\n      pop\n        /* \"#utility.yul\":10937:10939   */\n      0x1f\n        /* \"#utility.yul\":10929:10935   */\n      dup4\n        /* \"#utility.yul\":10926:10940   */\n      gt\n        /* \"#utility.yul\":10954:10955   */\n      0x01\n        /* \"#utility.yul\":10949:11567   */\n      dup2\n      eq\n      tag_218\n      jumpi\n        /* \"#utility.yul\":11611:11612   */\n      0x00\n        /* \"#utility.yul\":11628:11634   */\n      dup5\n        /* \"#utility.yul\":11625:11702   */\n      iszero\n      tag_219\n      jumpi\n        /* \"#utility.yul\":11677:11686   */\n      dup3\n        /* \"#utility.yul\":11672:11675   */\n      dup8\n        /* \"#utility.yul\":11668:11687   */\n      add\n        /* \"#utility.yul\":11662:11688   */\n      mload\n        /* \"#utility.yul\":11653:11688   */\n      swap1\n      pop\n        /* \"#utility.yul\":11625:11702   */\n    tag_219:\n        /* \"#utility.yul\":11728:11795   */\n      tag_220\n        /* \"#utility.yul\":11788:11794   */\n      dup6\n        /* \"#utility.yul\":11781:11786   */\n      dup3\n        /* \"#utility.yul\":11728:11795   */\n      tag_85\n      jump\t// in\n    tag_220:\n        /* \"#utility.yul\":11722:11726   */\n      dup7\n        /* \"#utility.yul\":11715:11796   */\n      sstore\n        /* \"#utility.yul\":11584:11806   */\n      pop\n        /* \"#utility.yul\":10919:11806   */\n      jump(tag_217)\n        /* \"#utility.yul\":10949:11567   */\n    tag_218:\n        /* \"#utility.yul\":11001:11005   */\n      0x1f\n        /* \"#utility.yul\":10997:11006   */\n      not\n        /* \"#utility.yul\":10989:10995   */\n      dup5\n        /* \"#utility.yul\":10985:11007   */\n      and\n        /* \"#utility.yul\":11035:11072   */\n      tag_221\n        /* \"#utility.yul\":11067:11071   */\n      dup7\n        /* \"#utility.yul\":11035:11072   */\n      tag_71\n      jump\t// in\n    tag_221:\n        /* \"#utility.yul\":11094:11095   */\n      0x00\n        /* \"#utility.yul\":11108:11316   */\n    tag_222:\n        /* \"#utility.yul\":11122:11129   */\n      dup3\n        /* \"#utility.yul\":11119:11120   */\n      dup2\n        /* \"#utility.yul\":11116:11130   */\n      lt\n        /* \"#utility.yul\":11108:11316   */\n      iszero\n      tag_224\n      jumpi\n        /* \"#utility.yul\":11201:11210   */\n      dup5\n        /* \"#utility.yul\":11196:11199   */\n      dup10\n        /* \"#utility.yul\":11192:11211   */\n      add\n        /* \"#utility.yul\":11186:11212   */\n      mload\n        /* \"#utility.yul\":11178:11184   */\n      dup3\n        /* \"#utility.yul\":11171:11213   */\n      sstore\n        /* \"#utility.yul\":11252:11253   */\n      0x01\n        /* \"#utility.yul\":11244:11250   */\n      dup3\n        /* \"#utility.yul\":11240:11254   */\n      add\n        /* \"#utility.yul\":11230:11254   */\n      swap2\n      pop\n        /* \"#utility.yul\":11299:11301   */\n      0x20\n        /* \"#utility.yul\":11288:11297   */\n      dup6\n        /* \"#utility.yul\":11284:11302   */\n      add\n        /* \"#utility.yul\":11271:11302   */\n      swap5\n      pop\n        /* \"#utility.yul\":11145:11149   */\n      0x20\n        /* \"#utility.yul\":11142:11143   */\n      dup2\n        /* \"#utility.yul\":11138:11150   */\n      add\n        /* \"#utility.yul\":11133:11150   */\n      swap1\n      pop\n        /* \"#utility.yul\":11108:11316   */\n      jump(tag_222)\n    tag_224:\n        /* \"#utility.yul\":11344:11350   */\n      dup7\n        /* \"#utility.yul\":11335:11342   */\n      dup4\n        /* \"#utility.yul\":11332:11351   */\n      lt\n        /* \"#utility.yul\":11329:11508   */\n      iszero\n      tag_225\n      jumpi\n        /* \"#utility.yul\":11402:11411   */\n      dup5\n        /* \"#utility.yul\":11397:11400   */\n      dup10\n        /* \"#utility.yul\":11393:11412   */\n      add\n        /* \"#utility.yul\":11387:11413   */\n      mload\n        /* \"#utility.yul\":11445:11493   */\n      tag_226\n        /* \"#utility.yul\":11487:11491   */\n      0x1f\n        /* \"#utility.yul\":11479:11485   */\n      dup10\n        /* \"#utility.yul\":11475:11492   */\n      and\n        /* \"#utility.yul\":11464:11473   */\n      dup3\n        /* \"#utility.yul\":11445:11493   */\n      tag_84\n      jump\t// in\n    tag_226:\n        /* \"#utility.yul\":11437:11443   */\n      dup4\n        /* \"#utility.yul\":11430:11494   */\n      sstore\n        /* \"#utility.yul\":11352:11508   */\n      pop\n        /* \"#utility.yul\":11329:11508   */\n    tag_225:\n        /* \"#utility.yul\":11554:11555   */\n      0x01\n        /* \"#utility.yul\":11550:11551   */\n      0x02\n        /* \"#utility.yul\":11542:11548   */\n      dup9\n        /* \"#utility.yul\":11538:11552   */\n      mul\n        /* \"#utility.yul\":11534:11556   */\n      add\n        /* \"#utility.yul\":11528:11532   */\n      dup9\n        /* \"#utility.yul\":11521:11557   */\n      sstore\n        /* \"#utility.yul\":10956:11567   */\n      pop\n      pop\n      pop\n        /* \"#utility.yul\":10919:11806   */\n    tag_217:\n      pop\n        /* \"#utility.yul\":10509:11812   */\n      pop\n      pop\n      pop\n        /* \"#utility.yul\":10417:11812   */\n      pop\n      pop\n      jump\t// out\n        /* \"#utility.yul\":11818:11998   */\n    tag_86:\n        /* \"#utility.yul\":11866:11943   */\n      0x4e487b7100000000000000000000000000000000000000000000000000000000\n        /* \"#utility.yul\":11863:11864   */\n      0x00\n        /* \"#utility.yul\":11856:11944   */\n      mstore\n        /* \"#utility.yul\":11963:11967   */\n      0x11\n        /* \"#utility.yul\":11960:11961   */\n      0x04\n        /* \"#utility.yul\":11953:11968   */\n      mstore\n        /* \"#utility.yul\":11987:11991   */\n      0x24\n        /* \"#utility.yul\":11984:11985   */\n      0x00\n        /* \"#utility.yul\":11977:11992   */\n      revert\n        /* \"#utility.yul\":12004:12198   */\n    tag_29:\n        /* \"#utility.yul\":12044:12048   */\n      0x00\n        /* \"#utility.yul\":12064:12084   */\n      tag_229\n        /* \"#utility.yul\":12082:12083   */\n      dup3\n        /* \"#utility.yul\":12064:12084   */\n      tag_53\n      jump\t// in\n    tag_229:\n        /* \"#utility.yul\":12059:12084   */\n      swap2\n      pop\n        /* \"#utility.yul\":12098:12118   */\n      tag_230\n        /* \"#utility.yul\":12116:12117   */\n      dup4\n        /* \"#utility.yul\":12098:12118   */\n      tag_53\n      jump\t// in\n    tag_230:\n        /* \"#utility.yul\":12093:12118   */\n      swap3\n      pop\n        /* \"#utility.yul\":12142:12143   */\n      dup3\n        /* \"#utility.yul\":12139:12140   */\n      dup3\n        /* \"#utility.yul\":12135:12144   */\n      sub\n        /* \"#utility.yul\":12127:12144   */\n      swap1\n      pop\n        /* \"#utility.yul\":12166:12167   */\n      dup2\n        /* \"#utility.yul\":12160:12164   */\n      dup2\n        /* \"#utility.yul\":12157:12168   */\n      gt\n        /* \"#utility.yul\":12154:12191   */\n      iszero\n      tag_231\n      jumpi\n        /* \"#utility.yul\":12171:12189   */\n      tag_232\n      tag_86\n      jump\t// in\n    tag_232:\n        /* \"#utility.yul\":12154:12191   */\n    tag_231:\n        /* \"#utility.yul\":12004:12198   */\n      swap3\n      swap2\n      pop\n      pop\n      jump\t// out\n        /* \"#utility.yul\":12204:12395   */\n    tag_31:\n        /* \"#utility.yul\":12244:12247   */\n      0x00\n        /* \"#utility.yul\":12263:12283   */\n      tag_234\n        /* \"#utility.yul\":12281:12282   */\n      dup3\n        /* \"#utility.yul\":12263:12283   */\n      tag_53\n      jump\t// in\n    tag_234:\n        /* \"#utility.yul\":12258:12283   */\n      swap2\n      pop\n        /* \"#utility.yul\":12297:12317   */\n      tag_235\n        /* \"#utility.yul\":12315:12316   */\n      dup4\n        /* \"#utility.yul\":12297:12317   */\n      tag_53\n      jump\t// in\n    tag_235:\n        /* \"#utility.yul\":12292:12317   */\n      swap3\n      pop\n        /* \"#utility.yul\":12340:12341   */\n      dup3\n        /* \"#utility.yul\":12337:12338   */\n      dup3\n        /* \"#utility.yul\":12333:12342   */\n      add\n        /* \"#utility.yul\":12326:12342   */\n      swap1\n      pop\n        /* \"#utility.yul\":12361:12364   */\n      dup1\n        /* \"#utility.yul\":12358:12359   */\n      dup3\n        /* \"#utility.yul\":12355:12365   */\n      gt\n        /* \"#utility.yul\":12352:12388   */\n      iszero\n      tag_236\n      jumpi\n        /* \"#utility.yul\":12368:12386   */\n      tag_237\n      tag_86\n      jump\t// in\n    tag_237:\n        /* \"#utility.yul\":12352:12388   */\n    tag_236:\n        /* \"#utility.yul\":12204:12395   */\n      swap3\n      swap2\n      pop\n      pop\n      jump\t// out\n\n    auxdata: 0xa2646970667358221220fc0ea001e12ff491fa655eebf341f8645c922fc1b59fdcd8a6b8de5eaa42e50664736f6c634300081a0033\n}\n",
				"bytecode": {
					"linkReferences": {},
					"object": "6080604052348015600e575f80fd5b50610adf8061001c5f395ff3fe608060405234801561000f575f80fd5b506004361061003f575f3560e01c80633c78d2da1461004357806359dc2eec1461005f578063e804047b14610093575b5f80fd5b61005d6004803603810190610058919061050f565b6100c3565b005b61007960048036038101906100749190610589565b6102b3565b60405161008a95949392919061063e565b60405180910390f35b6100ad60048036038101906100a89190610589565b610392565b6040516100ba91906106d5565b60405180910390f35b5f60025f3373ffffffffffffffffffffffffffffffffffffffff1673ffffffffffffffffffffffffffffffffffffffff1681526020019081526020015f20541461010b575f80fd5b5f3360405160200161011d9190610733565b604051602081830303815290604052805190602001205f1c90505f6040518060a00160405280848152602001838152602001428152602001600160ff1681526020015f60ff16815250908060018154018082558091505060019003905f5260205f2090600402015f909190919091505f820151815f01908161019f9190610947565b5060208201518160010155604082015181600201556060820151816003015f6101000a81548160ff021916908360ff16021790555060808201518160030160016101000a81548160ff021916908360ff16021790555050505f60015f805490506102099190610a43565b90503360015f8381526020019081526020015f205f6101000a81548173ffffffffffffffffffffffffffffffffffffffff021916908373ffffffffffffffffffffffffffffffffffffffff160217905550600160025f3373ffffffffffffffffffffffffffffffffffffffff1673ffffffffffffffffffffffffffffffffffffffff1681526020019081526020015f205f8282546102a79190610a76565b92505081905550505050565b5f81815481106102c1575f80fd5b905f5260205f2090600402015f91509050805f0180546102e09061077a565b80601f016020809104026020016040519081016040528092919081815260200182805461030c9061077a565b80156103575780601f1061032e57610100808354040283529160200191610357565b820191905f5260205f20905b81548152906001019060200180831161033a57829003601f168201915b505050505090806001015490806002015490806003015f9054906101000a900460ff16908060030160019054906101000a900460ff16905085565b6001602052805f5260405f205f915054906101000a900473ffffffffffffffffffffffffffffffffffffffff1681565b5f604051905090565b5f80fd5b5f80fd5b5f80fd5b5f80fd5b5f601f19601f8301169050919050565b7f4e487b71000000000000000000000000000000000000000000000000000000005f52604160045260245ffd5b610421826103db565b810181811067ffffffffffffffff821117156104405761043f6103eb565b5b80604052505050565b5f6104526103c2565b905061045e8282610418565b919050565b5f67ffffffffffffffff82111561047d5761047c6103eb565b5b610486826103db565b9050602081019050919050565b828183375f83830152505050565b5f6104b36104ae84610463565b610449565b9050828152602081018484840111156104cf576104ce6103d7565b5b6104da848285610493565b509392505050565b5f82601f8301126104f6576104f56103d3565b5b81356105068482602086016104a1565b91505092915050565b5f60208284031215610524576105236103cb565b5b5f82013567ffffffffffffffff811115610541576105406103cf565b5b61054d848285016104e2565b91505092915050565b5f819050919050565b61056881610556565b8114610572575f80fd5b50565b5f813590506105838161055f565b92915050565b5f6020828403121561059e5761059d6103cb565b5b5f6105ab84828501610575565b91505092915050565b5f81519050919050565b5f82825260208201905092915050565b8281835e5f83830152505050565b5f6105e6826105b4565b6105f081856105be565b93506106008185602086016105ce565b610609816103db565b840191505092915050565b61061d81610556565b82525050565b5f60ff82169050919050565b61063881610623565b82525050565b5f60a0820190508181035f83015261065681886105dc565b90506106656020830187610614565b6106726040830186610614565b61067f606083018561062f565b61068c608083018461062f565b9695505050505050565b5f73ffffffffffffffffffffffffffffffffffffffff82169050919050565b5f6106bf82610696565b9050919050565b6106cf816106b5565b82525050565b5f6020820190506106e85f8301846106c6565b92915050565b5f8160601b9050919050565b5f610704826106ee565b9050919050565b5f610715826106fa565b9050919050565b61072d610728826106b5565b61070b565b82525050565b5f61073e828461071c565b60148201915081905092915050565b7f4e487b71000000000000000000000000000000000000000000000000000000005f52602260045260245ffd5b5f600282049050600182168061079157607f821691505b6020821081036107a4576107a361074d565b5b50919050565b5f819050815f5260205f209050919050565b5f6020601f8301049050919050565b5f82821b905092915050565b5f600883026108067fffffffffffffffffffffffffffffffffffffffffffffffffffffffffffffffff826107cb565b61081086836107cb565b95508019841693508086168417925050509392505050565b5f819050919050565b5f61084b61084661084184610556565b610828565b610556565b9050919050565b5f819050919050565b61086483610831565b61087861087082610852565b8484546107d7565b825550505050565b5f90565b61088c610880565b61089781848461085b565b505050565b5b818110156108ba576108af5f82610884565b60018101905061089d565b5050565b601f8211156108ff576108d0816107aa565b6108d9846107bc565b810160208510156108e8578190505b6108fc6108f4856107bc565b83018261089c565b50505b505050565b5f82821c905092915050565b5f61091f5f1984600802610904565b1980831691505092915050565b5f6109378383610910565b9150826002028217905092915050565b610950826105b4565b67ffffffffffffffff811115610969576109686103eb565b5b610973825461077a565b61097e8282856108be565b5f60209050601f8311600181146109af575f841561099d578287015190505b6109a7858261092c565b865550610a0e565b601f1984166109bd866107aa565b5f5b828110156109e4578489015182556001820191506020850194506020810190506109bf565b86831015610a0157848901516109fd601f891682610910565b8355505b6001600288020188555050505b505050505050565b7f4e487b71000000000000000000000000000000000000000000000000000000005f52601160045260245ffd5b5f610a4d82610556565b9150610a5883610556565b9250828203905081811115610a7057610a6f610a16565b5b92915050565b5f610a8082610556565b9150610a8b83610556565b9250828201905080821115610aa357610aa2610a16565b5b9291505056fea2646970667358221220fc0ea001e12ff491fa655eebf341f8645c922fc1b59fdcd8a6b8de5eaa42e50664736f6c634300081a0033",
					"opcodes": "PUSH1 0x80 PUSH1 0x40 MSTORE CALLVALUE DUP1 ISZERO PUSH1 0xE JUMPI PUSH0 DUP1 REVERT JUMPDEST POP PUSH2 0xADF DUP1 PUSH2 0x1C PUSH0 CODECOPY PUSH0 RETURN INVALID PUSH1 0x80 PUSH1 0x40 MSTORE CALLVALUE DUP1 ISZERO PUSH2 0xF JUMPI PUSH0 DUP1 REVERT JUMPDEST POP PUSH1 0x4 CALLDATASIZE LT PUSH2 0x3F JUMPI PUSH0 CALLDATALOAD PUSH1 0xE0 SHR DUP1 PUSH4 0x3C78D2DA EQ PUSH2 0x43 JUMPI DUP1 PUSH4 0x59DC2EEC EQ PUSH2 0x5F JUMPI DUP1 PUSH4 0xE804047B EQ PUSH2 0x93 JUMPI JUMPDEST PUSH0 DUP1 REVERT JUMPDEST PUSH2 0x5D PUSH1 0x4 DUP1 CALLDATASIZE SUB DUP2 ADD SWAP1 PUSH2 0x58 SWAP2 SWAP1 PUSH2 0x50F JUMP JUMPDEST PUSH2 0xC3 JUMP JUMPDEST STOP JUMPDEST PUSH2 0x79 PUSH1 0x4 DUP1 CALLDATASIZE SUB DUP2 ADD SWAP1 PUSH2 0x74 SWAP2 SWAP1 PUSH2 0x589 JUMP JUMPDEST PUSH2 0x2B3 JUMP JUMPDEST PUSH1 0x40 MLOAD PUSH2 0x8A SWAP6 SWAP5 SWAP4 SWAP3 SWAP2 SWAP1 PUSH2 0x63E JUMP JUMPDEST PUSH1 0x40 MLOAD DUP1 SWAP2 SUB SWAP1 RETURN JUMPDEST PUSH2 0xAD PUSH1 0x4 DUP1 CALLDATASIZE SUB DUP2 ADD SWAP1 PUSH2 0xA8 SWAP2 SWAP1 PUSH2 0x589 JUMP JUMPDEST PUSH2 0x392 JUMP JUMPDEST PUSH1 0x40 MLOAD PUSH2 0xBA SWAP2 SWAP1 PUSH2 0x6D5 JUMP JUMPDEST PUSH1 0x40 MLOAD DUP1 SWAP2 SUB SWAP1 RETURN JUMPDEST PUSH0 PUSH1 0x2 PUSH0 CALLER PUSH20 0xFFFFFFFFFFFFFFFFFFFFFFFFFFFFFFFFFFFFFFFF AND PUSH20 0xFFFFFFFFFFFFFFFFFFFFFFFFFFFFFFFFFFFFFFFF AND DUP2 MSTORE PUSH1 0x20 ADD SWAP1 DUP2 MSTORE PUSH1 0x20 ADD PUSH0 KECCAK256 SLOAD EQ PUSH2 0x10B JUMPI PUSH0 DUP1 REVERT JUMPDEST PUSH0 CALLER PUSH1 0x40 MLOAD PUSH1 0x20 ADD PUSH2 0x11D SWAP2 SWAP1 PUSH2 0x733 JUMP JUMPDEST PUSH1 0x40 MLOAD PUSH1 0x20 DUP2 DUP4 SUB SUB DUP2 MSTORE SWAP1 PUSH1 0x40 MSTORE DUP1 MLOAD SWAP1 PUSH1 0x20 ADD KECCAK256 PUSH0 SHR SWAP1 POP PUSH0 PUSH1 0x40 MLOAD DUP1 PUSH1 0xA0 ADD PUSH1 0x40 MSTORE DUP1 DUP5 DUP2 MSTORE PUSH1 0x20 ADD DUP4 DUP2 MSTORE PUSH1 0x20 ADD TIMESTAMP DUP2 MSTORE PUSH1 0x20 ADD PUSH1 0x1 PUSH1 0xFF AND DUP2 MSTORE PUSH1 0x20 ADD PUSH0 PUSH1 0xFF AND DUP2 MSTORE POP SWAP1 DUP1 PUSH1 0x1 DUP2 SLOAD ADD DUP1 DUP3 SSTORE DUP1 SWAP2 POP POP PUSH1 0x1 SWAP1 SUB SWAP1 PUSH0 MSTORE PUSH1 0x20 PUSH0 KECCAK256 SWAP1 PUSH1 0x4 MUL ADD PUSH0 SWAP1 SWAP2 SWAP1 SWAP2 SWAP1 SWAP2 POP PUSH0 DUP3 ADD MLOAD DUP2 PUSH0 ADD SWAP1 DUP2 PUSH2 0x19F SWAP2 SWAP1 PUSH2 0x947 JUMP JUMPDEST POP PUSH1 0x20 DUP3 ADD MLOAD DUP2 PUSH1 0x1 ADD SSTORE PUSH1 0x40 DUP3 ADD MLOAD DUP2 PUSH1 0x2 ADD SSTORE PUSH1 0x60 DUP3 ADD MLOAD DUP2 PUSH1 0x3 ADD PUSH0 PUSH2 0x100 EXP DUP2 SLOAD DUP2 PUSH1 0xFF MUL NOT AND SWAP1 DUP4 PUSH1 0xFF AND MUL OR SWAP1 SSTORE POP PUSH1 0x80 DUP3 ADD MLOAD DUP2 PUSH1 0x3 ADD PUSH1 0x1 PUSH2 0x100 EXP DUP2 SLOAD DUP2 PUSH1 0xFF MUL NOT AND SWAP1 DUP4 PUSH1 0xFF AND MUL OR SWAP1 SSTORE POP POP POP PUSH0 PUSH1 0x1 PUSH0 DUP1 SLOAD SWAP1 POP PUSH2 0x209 SWAP2 SWAP1 PUSH2 0xA43 JUMP JUMPDEST SWAP1 POP CALLER PUSH1 0x1 PUSH0 DUP4 DUP2 MSTORE PUSH1 0x20 ADD SWAP1 DUP2 MSTORE PUSH1 0x20 ADD PUSH0 KECCAK256 PUSH0 PUSH2 0x100 EXP DUP2 SLOAD DUP2 PUSH20 0xFFFFFFFFFFFFFFFFFFFFFFFFFFFFFFFFFFFFFFFF MUL NOT AND SWAP1 DUP4 PUSH20 0xFFFFFFFFFFFFFFFFFFFFFFFFFFFFFFFFFFFFFFFF AND MUL OR SWAP1 SSTORE POP PUSH1 0x1 PUSH1 0x2 PUSH0 CALLER PUSH20 0xFFFFFFFFFFFFFFFFFFFFFFFFFFFFFFFFFFFFFFFF AND PUSH20 0xFFFFFFFFFFFFFFFFFFFFFFFFFFFFFFFFFFFFFFFF AND DUP2 MSTORE PUSH1 0x20 ADD SWAP1 DUP2 MSTORE PUSH1 0x20 ADD PUSH0 KECCAK256 PUSH0 DUP3 DUP3 SLOAD PUSH2 0x2A7 SWAP2 SWAP1 PUSH2 0xA76 JUMP JUMPDEST SWAP3 POP POP DUP2 SWAP1 SSTORE POP POP POP POP JUMP JUMPDEST PUSH0 DUP2 DUP2 SLOAD DUP2 LT PUSH2 0x2C1 JUMPI PUSH0 DUP1 REVERT JUMPDEST SWAP1 PUSH0 MSTORE PUSH1 0x20 PUSH0 KECCAK256 SWAP1 PUSH1 0x4 MUL ADD PUSH0 SWAP2 POP SWAP1 POP DUP1 PUSH0 ADD DUP1 SLOAD PUSH2 0x2E0 SWAP1 PUSH2 0x77A JUMP JUMPDEST DUP1 PUSH1 0x1F ADD PUSH1 0x20 DUP1 SWAP2 DIV MUL PUSH1 0x20 ADD PUSH1 0x40 MLOAD SWAP1 DUP2 ADD PUSH1 0x40 MSTORE DUP1 SWAP3 SWAP2 SWAP1 DUP2 DUP2 MSTORE PUSH1 0x20 ADD DUP3 DUP1 SLOAD PUSH2 0x30C SWAP1 PUSH2 0x77A JUMP JUMPDEST DUP1 ISZERO PUSH2 0x357 JUMPI DUP1 PUSH1 0x1F LT PUSH2 0x32E JUMPI PUSH2 0x100 DUP1 DUP4 SLOAD DIV MUL DUP4 MSTORE SWAP2 PUSH1 0x20 ADD SWAP2 PUSH2 0x357 JUMP JUMPDEST DUP3 ADD SWAP2 SWAP1 PUSH0 MSTORE PUSH1 0x20 PUSH0 KECCAK256 SWAP1 JUMPDEST DUP2 SLOAD DUP2 MSTORE SWAP1 PUSH1 0x1 ADD SWAP1 PUSH1 0x20 ADD DUP1 DUP4 GT PUSH2 0x33A JUMPI DUP3 SWAP1 SUB PUSH1 0x1F AND DUP3 ADD SWAP2 JUMPDEST POP POP POP POP POP SWAP1 DUP1 PUSH1 0x1 ADD SLOAD SWAP1 DUP1 PUSH1 0x2 ADD SLOAD SWAP1 DUP1 PUSH1 0x3 ADD PUSH0 SWAP1 SLOAD SWAP1 PUSH2 0x100 EXP SWAP1 DIV PUSH1 0xFF AND SWAP1 DUP1 PUSH1 0x3 ADD PUSH1 0x1 SWAP1 SLOAD SWAP1 PUSH2 0x100 EXP SWAP1 DIV PUSH1 0xFF AND SWAP1 POP DUP6 JUMP JUMPDEST PUSH1 0x1 PUSH1 0x20 MSTORE DUP1 PUSH0 MSTORE PUSH1 0x40 PUSH0 KECCAK256 PUSH0 SWAP2 POP SLOAD SWAP1 PUSH2 0x100 EXP SWAP1 DIV PUSH20 0xFFFFFFFFFFFFFFFFFFFFFFFFFFFFFFFFFFFFFFFF AND DUP2 JUMP JUMPDEST PUSH0 PUSH1 0x40 MLOAD SWAP1 POP SWAP1 JUMP JUMPDEST PUSH0 DUP1 REVERT JUMPDEST PUSH0 DUP1 REVERT JUMPDEST PUSH0 DUP1 REVERT JUMPDEST PUSH0 DUP1 REVERT JUMPDEST PUSH0 PUSH1 0x1F NOT PUSH1 0x1F DUP4 ADD AND SWAP1 POP SWAP2 SWAP1 POP JUMP JUMPDEST PUSH32 0x4E487B7100000000000000000000000000000000000000000000000000000000 PUSH0 MSTORE PUSH1 0x41 PUSH1 0x4 MSTORE PUSH1 0x24 PUSH0 REVERT JUMPDEST PUSH2 0x421 DUP3 PUSH2 0x3DB JUMP JUMPDEST DUP2 ADD DUP2 DUP2 LT PUSH8 0xFFFFFFFFFFFFFFFF DUP3 GT OR ISZERO PUSH2 0x440 JUMPI PUSH2 0x43F PUSH2 0x3EB JUMP JUMPDEST JUMPDEST DUP1 PUSH1 0x40 MSTORE POP POP POP JUMP JUMPDEST PUSH0 PUSH2 0x452 PUSH2 0x3C2 JUMP JUMPDEST SWAP1 POP PUSH2 0x45E DUP3 DUP3 PUSH2 0x418 JUMP JUMPDEST SWAP2 SWAP1 POP JUMP JUMPDEST PUSH0 PUSH8 0xFFFFFFFFFFFFFFFF DUP3 GT ISZERO PUSH2 0x47D JUMPI PUSH2 0x47C PUSH2 0x3EB JUMP JUMPDEST JUMPDEST PUSH2 0x486 DUP3 PUSH2 0x3DB JUMP JUMPDEST SWAP1 POP PUSH1 0x20 DUP2 ADD SWAP1 POP SWAP2 SWAP1 POP JUMP JUMPDEST DUP3 DUP2 DUP4 CALLDATACOPY PUSH0 DUP4 DUP4 ADD MSTORE POP POP POP JUMP JUMPDEST PUSH0 PUSH2 0x4B3 PUSH2 0x4AE DUP5 PUSH2 0x463 JUMP JUMPDEST PUSH2 0x449 JUMP JUMPDEST SWAP1 POP DUP3 DUP2 MSTORE PUSH1 0x20 DUP2 ADD DUP5 DUP5 DUP5 ADD GT ISZERO PUSH2 0x4CF JUMPI PUSH2 0x4CE PUSH2 0x3D7 JUMP JUMPDEST JUMPDEST PUSH2 0x4DA DUP5 DUP3 DUP6 PUSH2 0x493 JUMP JUMPDEST POP SWAP4 SWAP3 POP POP POP JUMP JUMPDEST PUSH0 DUP3 PUSH1 0x1F DUP4 ADD SLT PUSH2 0x4F6 JUMPI PUSH2 0x4F5 PUSH2 0x3D3 JUMP JUMPDEST JUMPDEST DUP2 CALLDATALOAD PUSH2 0x506 DUP5 DUP3 PUSH1 0x20 DUP7 ADD PUSH2 0x4A1 JUMP JUMPDEST SWAP2 POP POP SWAP3 SWAP2 POP POP JUMP JUMPDEST PUSH0 PUSH1 0x20 DUP3 DUP5 SUB SLT ISZERO PUSH2 0x524 JUMPI PUSH2 0x523 PUSH2 0x3CB JUMP JUMPDEST JUMPDEST PUSH0 DUP3 ADD CALLDATALOAD PUSH8 0xFFFFFFFFFFFFFFFF DUP2 GT ISZERO PUSH2 0x541 JUMPI PUSH2 0x540 PUSH2 0x3CF JUMP JUMPDEST JUMPDEST PUSH2 0x54D DUP5 DUP3 DUP6 ADD PUSH2 0x4E2 JUMP JUMPDEST SWAP2 POP POP SWAP3 SWAP2 POP POP JUMP JUMPDEST PUSH0 DUP2 SWAP1 POP SWAP2 SWAP1 POP JUMP JUMPDEST PUSH2 0x568 DUP2 PUSH2 0x556 JUMP JUMPDEST DUP2 EQ PUSH2 0x572 JUMPI PUSH0 DUP1 REVERT JUMPDEST POP JUMP JUMPDEST PUSH0 DUP2 CALLDATALOAD SWAP1 POP PUSH2 0x583 DUP2 PUSH2 0x55F JUMP JUMPDEST SWAP3 SWAP2 POP POP JUMP JUMPDEST PUSH0 PUSH1 0x20 DUP3 DUP5 SUB SLT ISZERO PUSH2 0x59E JUMPI PUSH2 0x59D PUSH2 0x3CB JUMP JUMPDEST JUMPDEST PUSH0 PUSH2 0x5AB DUP5 DUP3 DUP6 ADD PUSH2 0x575 JUMP JUMPDEST SWAP2 POP POP SWAP3 SWAP2 POP POP JUMP JUMPDEST PUSH0 DUP2 MLOAD SWAP1 POP SWAP2 SWAP1 POP JUMP JUMPDEST PUSH0 DUP3 DUP3 MSTORE PUSH1 0x20 DUP3 ADD SWAP1 POP SWAP3 SWAP2 POP POP JUMP JUMPDEST DUP3 DUP2 DUP4 MCOPY PUSH0 DUP4 DUP4 ADD MSTORE POP POP POP JUMP JUMPDEST PUSH0 PUSH2 0x5E6 DUP3 PUSH2 0x5B4 JUMP JUMPDEST PUSH2 0x5F0 DUP2 DUP6 PUSH2 0x5BE JUMP JUMPDEST SWAP4 POP PUSH2 0x600 DUP2 DUP6 PUSH1 0x20 DUP7 ADD PUSH2 0x5CE JUMP JUMPDEST PUSH2 0x609 DUP2 PUSH2 0x3DB JUMP JUMPDEST DUP5 ADD SWAP2 POP POP SWAP3 SWAP2 POP POP JUMP JUMPDEST PUSH2 0x61D DUP2 PUSH2 0x556 JUMP JUMPDEST DUP3 MSTORE POP POP JUMP JUMPDEST PUSH0 PUSH1 0xFF DUP3 AND SWAP1 POP SWAP2 SWAP1 POP JUMP JUMPDEST PUSH2 0x638 DUP2 PUSH2 0x623 JUMP JUMPDEST DUP3 MSTORE POP POP JUMP JUMPDEST PUSH0 PUSH1 0xA0 DUP3 ADD SWAP1 POP DUP2 DUP2 SUB PUSH0 DUP4 ADD MSTORE PUSH2 0x656 DUP2 DUP9 PUSH2 0x5DC JUMP JUMPDEST SWAP1 POP PUSH2 0x665 PUSH1 0x20 DUP4 ADD DUP8 PUSH2 0x614 JUMP JUMPDEST PUSH2 0x672 PUSH1 0x40 DUP4 ADD DUP7 PUSH2 0x614 JUMP JUMPDEST PUSH2 0x67F PUSH1 0x60 DUP4 ADD DUP6 PUSH2 0x62F JUMP JUMPDEST PUSH2 0x68C PUSH1 0x80 DUP4 ADD DUP5 PUSH2 0x62F JUMP JUMPDEST SWAP7 SWAP6 POP POP POP POP POP POP JUMP JUMPDEST PUSH0 PUSH20 0xFFFFFFFFFFFFFFFFFFFFFFFFFFFFFFFFFFFFFFFF DUP3 AND SWAP1 POP SWAP2 SWAP1 POP JUMP JUMPDEST PUSH0 PUSH2 0x6BF DUP3 PUSH2 0x696 JUMP JUMPDEST SWAP1 POP SWAP2 SWAP1 POP JUMP JUMPDEST PUSH2 0x6CF DUP2 PUSH2 0x6B5 JUMP JUMPDEST DUP3 MSTORE POP POP JUMP JUMPDEST PUSH0 PUSH1 0x20 DUP3 ADD SWAP1 POP PUSH2 0x6E8 PUSH0 DUP4 ADD DUP5 PUSH2 0x6C6 JUMP JUMPDEST SWAP3 SWAP2 POP POP JUMP JUMPDEST PUSH0 DUP2 PUSH1 0x60 SHL SWAP1 POP SWAP2 SWAP1 POP JUMP JUMPDEST PUSH0 PUSH2 0x704 DUP3 PUSH2 0x6EE JUMP JUMPDEST SWAP1 POP SWAP2 SWAP1 POP JUMP JUMPDEST PUSH0 PUSH2 0x715 DUP3 PUSH2 0x6FA JUMP JUMPDEST SWAP1 POP SWAP2 SWAP1 POP JUMP JUMPDEST PUSH2 0x72D PUSH2 0x728 DUP3 PUSH2 0x6B5 JUMP JUMPDEST PUSH2 0x70B JUMP JUMPDEST DUP3 MSTORE POP POP JUMP JUMPDEST PUSH0 PUSH2 0x73E DUP3 DUP5 PUSH2 0x71C JUMP JUMPDEST PUSH1 0x14 DUP3 ADD SWAP2 POP DUP2 SWAP1 POP SWAP3 SWAP2 POP POP JUMP JUMPDEST PUSH32 0x4E487B7100000000000000000000000000000000000000000000000000000000 PUSH0 MSTORE PUSH1 0x22 PUSH1 0x4 MSTORE PUSH1 0x24 PUSH0 REVERT JUMPDEST PUSH0 PUSH1 0x2 DUP3 DIV SWAP1 POP PUSH1 0x1 DUP3 AND DUP1 PUSH2 0x791 JUMPI PUSH1 0x7F DUP3 AND SWAP2 POP JUMPDEST PUSH1 0x20 DUP3 LT DUP2 SUB PUSH2 0x7A4 JUMPI PUSH2 0x7A3 PUSH2 0x74D JUMP JUMPDEST JUMPDEST POP SWAP2 SWAP1 POP JUMP JUMPDEST PUSH0 DUP2 SWAP1 POP DUP2 PUSH0 MSTORE PUSH1 0x20 PUSH0 KECCAK256 SWAP1 POP SWAP2 SWAP1 POP JUMP JUMPDEST PUSH0 PUSH1 0x20 PUSH1 0x1F DUP4 ADD DIV SWAP1 POP SWAP2 SWAP1 POP JUMP JUMPDEST PUSH0 DUP3 DUP3 SHL SWAP1 POP SWAP3 SWAP2 POP POP JUMP JUMPDEST PUSH0 PUSH1 0x8 DUP4 MUL PUSH2 0x806 PUSH32 0xFFFFFFFFFFFFFFFFFFFFFFFFFFFFFFFFFFFFFFFFFFFFFFFFFFFFFFFFFFFFFFFF DUP3 PUSH2 0x7CB JUMP JUMPDEST PUSH2 0x810 DUP7 DUP4 PUSH2 0x7CB JUMP JUMPDEST SWAP6 POP DUP1 NOT DUP5 AND SWAP4 POP DUP1 DUP7 AND DUP5 OR SWAP3 POP POP POP SWAP4 SWAP3 POP POP POP JUMP JUMPDEST PUSH0 DUP2 SWAP1 POP SWAP2 SWAP1 POP JUMP JUMPDEST PUSH0 PUSH2 0x84B PUSH2 0x846 PUSH2 0x841 DUP5 PUSH2 0x556 JUMP JUMPDEST PUSH2 0x828 JUMP JUMPDEST PUSH2 0x556 JUMP JUMPDEST SWAP1 POP SWAP2 SWAP1 POP JUMP JUMPDEST PUSH0 DUP2 SWAP1 POP SWAP2 SWAP1 POP JUMP JUMPDEST PUSH2 0x864 DUP4 PUSH2 0x831 JUMP JUMPDEST PUSH2 0x878 PUSH2 0x870 DUP3 PUSH2 0x852 JUMP JUMPDEST DUP5 DUP5 SLOAD PUSH2 0x7D7 JUMP JUMPDEST DUP3 SSTORE POP POP POP POP JUMP JUMPDEST PUSH0 SWAP1 JUMP JUMPDEST PUSH2 0x88C PUSH2 0x880 JUMP JUMPDEST PUSH2 0x897 DUP2 DUP5 DUP5 PUSH2 0x85B JUMP JUMPDEST POP POP POP JUMP JUMPDEST JUMPDEST DUP2 DUP2 LT ISZERO PUSH2 0x8BA JUMPI PUSH2 0x8AF PUSH0 DUP3 PUSH2 0x884 JUMP JUMPDEST PUSH1 0x1 DUP2 ADD SWAP1 POP PUSH2 0x89D JUMP JUMPDEST POP POP JUMP JUMPDEST PUSH1 0x1F DUP3 GT ISZERO PUSH2 0x8FF JUMPI PUSH2 0x8D0 DUP2 PUSH2 0x7AA JUMP JUMPDEST PUSH2 0x8D9 DUP5 PUSH2 0x7BC JUMP JUMPDEST DUP2 ADD PUSH1 0x20 DUP6 LT ISZERO PUSH2 0x8E8 JUMPI DUP2 SWAP1 POP JUMPDEST PUSH2 0x8FC PUSH2 0x8F4 DUP6 PUSH2 0x7BC JUMP JUMPDEST DUP4 ADD DUP3 PUSH2 0x89C JUMP JUMPDEST POP POP JUMPDEST POP POP POP JUMP JUMPDEST PUSH0 DUP3 DUP3 SHR SWAP1 POP SWAP3 SWAP2 POP POP JUMP JUMPDEST PUSH0 PUSH2 0x91F PUSH0 NOT DUP5 PUSH1 0x8 MUL PUSH2 0x904 JUMP JUMPDEST NOT DUP1 DUP4 AND SWAP2 POP POP SWAP3 SWAP2 POP POP JUMP JUMPDEST PUSH0 PUSH2 0x937 DUP4 DUP4 PUSH2 0x910 JUMP JUMPDEST SWAP2 POP DUP3 PUSH1 0x2 MUL DUP3 OR SWAP1 POP SWAP3 SWAP2 POP POP JUMP JUMPDEST PUSH2 0x950 DUP3 PUSH2 0x5B4 JUMP JUMPDEST PUSH8 0xFFFFFFFFFFFFFFFF DUP2 GT ISZERO PUSH2 0x969 JUMPI PUSH2 0x968 PUSH2 0x3EB JUMP JUMPDEST JUMPDEST PUSH2 0x973 DUP3 SLOAD PUSH2 0x77A JUMP JUMPDEST PUSH2 0x97E DUP3 DUP3 DUP6 PUSH2 0x8BE JUMP JUMPDEST PUSH0 PUSH1 0x20 SWAP1 POP PUSH1 0x1F DUP4 GT PUSH1 0x1 DUP2 EQ PUSH2 0x9AF JUMPI PUSH0 DUP5 ISZERO PUSH2 0x99D JUMPI DUP3 DUP8 ADD MLOAD SWAP1 POP JUMPDEST PUSH2 0x9A7 DUP6 DUP3 PUSH2 0x92C JUMP JUMPDEST DUP7 SSTORE POP PUSH2 0xA0E JUMP JUMPDEST PUSH1 0x1F NOT DUP5 AND PUSH2 0x9BD DUP7 PUSH2 0x7AA JUMP JUMPDEST PUSH0 JUMPDEST DUP3 DUP2 LT ISZERO PUSH2 0x9E4 JUMPI DUP5 DUP10 ADD MLOAD DUP3 SSTORE PUSH1 0x1 DUP3 ADD SWAP2 POP PUSH1 0x20 DUP6 ADD SWAP5 POP PUSH1 0x20 DUP2 ADD SWAP1 POP PUSH2 0x9BF JUMP JUMPDEST DUP7 DUP4 LT ISZERO PUSH2 0xA01 JUMPI DUP5 DUP10 ADD MLOAD PUSH2 0x9FD PUSH1 0x1F DUP10 AND DUP3 PUSH2 0x910 JUMP JUMPDEST DUP4 SSTORE POP JUMPDEST PUSH1 0x1 PUSH1 0x2 DUP9 MUL ADD DUP9 SSTORE POP POP POP JUMPDEST POP POP POP POP POP POP JUMP JUMPDEST PUSH32 0x4E487B7100000000000000000000000000000000000000000000000000000000 PUSH0 MSTORE PUSH1 0x11 PUSH1 0x4 MSTORE PUSH1 0x24 PUSH0 REVERT JUMPDEST PUSH0 PUSH2 0xA4D DUP3 PUSH2 0x556 JUMP JUMPDEST SWAP2 POP PUSH2 0xA58 DUP4 PUSH2 0x556 JUMP JUMPDEST SWAP3 POP DUP3 DUP3 SUB SWAP1 POP DUP2 DUP2 GT ISZERO PUSH2 0xA70 JUMPI PUSH2 0xA6F PUSH2 0xA16 JUMP JUMPDEST JUMPDEST SWAP3 SWAP2 POP POP JUMP JUMPDEST PUSH0 PUSH2 0xA80 DUP3 PUSH2 0x556 JUMP JUMPDEST SWAP2 POP PUSH2 0xA8B DUP4 PUSH2 0x556 JUMP JUMPDEST SWAP3 POP DUP3 DUP3 ADD SWAP1 POP DUP1 DUP3 GT ISZERO PUSH2 0xAA3 JUMPI PUSH2 0xAA2 PUSH2 0xA16 JUMP JUMPDEST JUMPDEST SWAP3 SWAP2 POP POP JUMP INVALID LOG2 PUSH5 0x6970667358 0x22 SLT KECCAK256 0xFC 0xE LOG0 ADD 0xE1 0x2F DELEGATECALL SWAP2 STATICCALL PUSH6 0x5EEBF341F864 TLOAD SWAP3 0x2F 0xC1 0xB5 SWAP16 0xDC 0xD8 0xA6 0xB8 0xDE MCOPY 0xAA TIMESTAMP 0xE5 MOD PUSH5 0x736F6C6343 STOP ADDMOD BYTE STOP CALLER "
				},
				"gasEstimates": {
					"creation": {
						"codeDepositCost": "556600",
						"executionCost": "585",
						"totalCost": "557185"
					},
					"external": {
						"_createRabbit(string)": "infinite",
						"rabbitToOwner(uint256)": "2849",
						"rabbits(uint256)": "infinite"
					}
				},
				"methodIdentifiers": {
					"_createRabbit(string)": "3c78d2da",
					"rabbitToOwner(uint256)": "e804047b",
					"rabbits(uint256)": "59dc2eec"
				}
			},
			"storageLayout": {
				"storage": [
					{
						"astId": 21,
						"contract": "contracts/CryptoRabbits.sol:CryptoRabbits",
						"label": "rabbits",
						"offset": 0,
						"slot": "0",
						"type": "t_array(t_struct(Rabbit)17_storage)dyn_storage"
					},
					{
						"astId": 25,
						"contract": "contracts/CryptoRabbits.sol:CryptoRabbits",
						"label": "rabbitToOwner",
						"offset": 0,
						"slot": "1",
						"type": "t_mapping(t_uint256,t_address)"
					},
					{
						"astId": 29,
						"contract": "contracts/CryptoRabbits.sol:CryptoRabbits",
						"label": "ownerRabbitsCount",
						"offset": 0,
						"slot": "2",
						"type": "t_mapping(t_address,t_uint256)"
					}
				],
				"types": {
					"t_address": {
						"encoding": "inplace",
						"label": "address",
						"numberOfBytes": "20"
					},
					"t_array(t_struct(Rabbit)17_storage)dyn_storage": {
						"base": "t_struct(Rabbit)17_storage",
						"encoding": "dynamic_array",
						"label": "struct CryptoRabbits.Rabbit[]",
						"numberOfBytes": "32"
					},
					"t_mapping(t_address,t_uint256)": {
						"encoding": "mapping",
						"key": "t_address",
						"label": "mapping(address => uint256)",
						"numberOfBytes": "32",
						"value": "t_uint256"
					},
					"t_mapping(t_uint256,t_address)": {
						"encoding": "mapping",
						"key": "t_uint256",
						"label": "mapping(uint256 => address)",
						"numberOfBytes": "32",
						"value": "t_address"
					},
					"t_string_storage": {
						"encoding": "bytes",
						"label": "string",
						"numberOfBytes": "32"
					},
					"t_struct(Rabbit)17_storage": {
						"encoding": "inplace",
						"label": "struct CryptoRabbits.Rabbit",
						"members": [
							{
								"astId": 8,
								"contract": "contracts/CryptoRabbits.sol:CryptoRabbits",
								"label": "name",
								"offset": 0,
								"slot": "0",
								"type": "t_string_storage"
							},
							{
								"astId": 10,
								"contract": "contracts/CryptoRabbits.sol:CryptoRabbits",
								"label": "dna",
								"offset": 0,
								"slot": "1",
								"type": "t_uint256"
							},
							{
								"astId": 12,
								"contract": "contracts/CryptoRabbits.sol:CryptoRabbits",
								"label": "birthday",
								"offset": 0,
								"slot": "2",
								"type": "t_uint256"
							},
							{
								"astId": 14,
								"contract": "contracts/CryptoRabbits.sol:CryptoRabbits",
								"label": "generation",
								"offset": 0,
								"slot": "3",
								"type": "t_uint8"
							},
							{
								"astId": 16,
								"contract": "contracts/CryptoRabbits.sol:CryptoRabbits",
								"label": "breedingCooldown",
								"offset": 1,
								"slot": "3",
								"type": "t_uint8"
							}
						],
						"numberOfBytes": "128"
					},
					"t_uint256": {
						"encoding": "inplace",
						"label": "uint256",
						"numberOfBytes": "32"
					},
					"t_uint8": {
						"encoding": "inplace",
						"label": "uint8",
						"numberOfBytes": "1"
					}
				}
			},
			"userdoc": {
				"kind": "user",
				"methods": {},
				"version": 1
			}
		}
	}
}